:020000040000FA
:100000004036002095020000CD020000CF02000023
:10001000D1020000D3020000D50200000000000061
:10002000000000000000000000000000D7020000F7
:10003000D902000000000000DB020000E59500008E
:10004000054F0000194F00002D4F0000414F0000E8
:10005000554F0000694F00007D4F0000914F000098
:10006000A54F0000B94F0000CD4F0000E14F000048
:10007000F54F0000095000001D50000031500000F5
:1000800045500000595000006D50000081500000A4
:1000900095500000A9500000BD500000D150000054
:1000A000E5500000F95000000D5100002151000002
:1000B00035510000495100005D51000071510000B0
:1000C0008551000099510000AD510000C151000060
:1000D000D5510000E9510000FD510000115200000F
:1000E00025520000395200004D52000061520000BC
:1000F00075520000895200009D520000B15200006C
:10010000C5520000D9520000ED520000015300001A
:1001100015530000295300003D53000051530000C7
:1001200065530000795300008D530000A153000077
:10013000B5530000C9530000DD530000F153000027
:1001400005540000195400002D54000041540000D3
:1001500055540000695400007D5400009154000083
:10016000A5540000B9540000CD540000E154000033
:10017000F5540000095500001D55000031550000E0
:1001800045550000595500006D550000815500008F
:1001900095550000A9550000BD550000D15500003F
:1001A000E5550000F95500000D56000021560000ED
:1001B00035560000495600005D560000715600009B
:1001C0008556000099560000AD560000C15600004B
:1001D000D5560000E9560000FD56000011570000FA
:1001E00025570000395700004D57000061570000A7
:1001F00075570000895700009D570000B157000057
:10020000C5570000D9570000ED5700000158000005
:1002100015580000295800003D58000051580000B2
:1002200065580000795800008D580000A158000062
:10023000B5580000C9580000DD580000F158000012
:1002400005590000595A0000F15E0000D95F000016
:10025000A1620000DF020000DF020000DF020000F8
:100260002164000065670000ED6900001D6C00005E
:10027000416D0000556F0000BD710000C9720000A3
:10028000DFF80CD000F066FD0048004715C0000004
:100290004036002012484FF01F01016011484FF016
:1002A0007701016010484FF0770101600F484FF46B
:1002B000885101600B484FF0760101600A484FF009
:1002C000760101600A4880470A480047FEE7FEE7DA
:1002D000FEE7FEE7FEE7FEE7FEE7FEE7FEE7FEE7F6
:1002E00010080540040805400C08054000080540BA
:1002F000FD970000810200002DE9F05F0546002017
:1003000092469B4688460646814640241BE0284686
:1003100041464746224600F0B2FB53465A46C01AB1
:10032000914110D311461846224600F099FB2D1A30
:1003300067EB01084F4622460120002100F090FBA8
:1003400017EB00094E41201EA4F10104DFDC4846F2
:1003500031462A464346BDE8F09F00000649074A59
:100360000868504343F2390210440860400870475F
:100370000149086070470000F882FF1F6D4EC641BA
:10038000D2B201E000F8012B491EFBD270470022D7
:10039000F6E710B513460A4604461946FFF7F0FF84
:1003A000204610BD70B506460AF0D2FC046805462A
:1003B0000A220021304600F084FB2C6070BDC10F82
:1003C00080EAE0700844CA079623002100F0BABB17
:1003D00096230022114600F0B5BB0EB5C10F80EA8E
:1003E000E0700844CA07002140F233438DE80E0054
:1003F0000A460B4600F030FC03B000BD7047704762
:10040000BFFFDFFFFFFEFFFFFFFFFFFFFFFFFFFF5D
:10041000FFFFFFFFFFFFFFFFFFFFFFFFFFFFFFFFEC
:10042000F0B480EA0102D40F4200B2EB410F02D2D5
:100430000246084611464A0042D0C30DDDB2C1F360
:10044000C752AD1A202D35DAC1F3160141F400026E
:1004500004B15242C5F1200602FA06F12A411044C5
:10046000B3EBD05F23D0C4B1012DA0EBC35009DCA6
:10047000F0BC4FF0004202EAC352DBB200F50000CC
:1004800000F060BB400000F1807000EBC350A0F1B1
:10049000807040EAD170490009E0490841EAC07122
:1004A000A0EBC35000F50000400800EBC350F0BCC7
:1004B00000F03FBB6142012202EB4101001BF6E765
:1004C000F0BC704781F00041AAE780F00040A7E748
:1004D00080EA010210B502F00043400022D04A0039
:1004E0001FD0010E01EB1261C0F35600C2F3560299
:1004F00040F4000042F40002A0FB022000047F3917
:10050000140400D0401C50EA124001D44000491E9F
:10051000C2B20C0604EBD010401C4008802A02D066
:1005200003E0002010BD20F00100002900DA0020C7
:10053000184310BD30B480EA010202F0004530F0EB
:10054000004221F0004013D090B1C30DD40DC2F38E
:100550001601C0F31600E41A41F4000140F4000251
:100560007D34914201D3641C00E04900002C02DA82
:1005700030BC002070474FF400000023914201D3AB
:10058000891A034340084FEA4101F7D151B1914222
:1005900002D14FF0004105E002D24FF0010101E02D
:1005A0006FF0010103EBC450284430BC00F0C1BA25
:1005B0002DE9FE4F804681EA0300C00F0C460090F3
:1005C00021F0004123F00045B8EB0200A94105D21B
:1005D0004046214690461C460B46024623F000400A
:1005E000104347D0270DC7F30A00C3F30A51029006
:1005F000401A019040286BDAC3F3130040F4801BCB
:100600000098924620B10023D2EB030A63EB0B0B58
:1006100001985946C0F14002504600F021FA0646C2
:100620000D4650465946019A00F039FA10EB080081
:100630006141002487EA115284EAE7731A4340D0EB
:10064000009A62B3019A012A4FEA075215DC001B97
:1006500061EB02014FF0004202EA0752CDE900428D
:10066000001C41F5801132462B4600F0F5FA03B02C
:10067000BDE8F08F40462146F9E7001B61EB02011F
:10068000001C41F5801300185B412018A2F50017EB
:1006900047EB030140EAD570B6196D4111E06D08D2
:1006A0004FEA360645EAC0754FEA0752001B61EB78
:1006B0000201001C41F5801149084FEA3000001981
:1006C000514132462B4603B0BDE8F04F00F0B5BAB9
:1006D0000098012240000023D0EB020263EBE0739C
:1006E000009821464FEAE074B8EB000061EB04018A
:1006F000E9E783F000435BE781F0004158E72DE92B
:10070000FE4F81EA030404F0004421F0004100940C
:100710004FF0000B23F0004350EA01045ED052EA90
:1007200003045BD0C3F30A54C1F30A552C44A4F26A
:10073000F3340194A0FB0254C1F3130141F480117E
:10074000C3F3130343F4801301FB024400FB034E85
:10075000840A970A44EA815447EA8357A4FB07684E
:1007600002958D0A05FB07854FEA932C04FB0C5478
:100770002705029D4FEA065847EA1637B5EB0805EC
:100780006EEB070C870E920E47EA811742EA83123E
:10079000A7FB0201B6EB0B0164EB00042B0D43EA4F
:1007A0000C335E1844EB1C50DA465146E7FB02015D
:1007B000C5F313044FEA0B3343EA14534FEA0432F0
:1007C000019C43EA0603A4F10C040294009CCDE9C9
:1007D00000B400F041FA03B0BDE8F08F00200146FC
:1007E000F9E72DE9F04D81EA030404F0004B21F014
:1007F000004514464FF0000A23F0004150EA05027C
:1008000020D054EA01021DD0C5F30A570246C5F3B1
:100810001303C1F31300C1F30A5640F4801543F4E7
:100820008013A7EB0608101BD64608F2FD3873EBC1
:10083000050002D308F1010801E092185B41B8F10C
:10084000000F03DA00200146BDE8F08D00204FF4D0
:100850008011064684460EE0171B73EB050705D38F
:10086000121B63EB050306434CEA010C49084FEAEF
:10087000300092185B4150EA0107EDD152EA0300C3
:1008800012D082EA040083EA0501084305D0101B58
:10089000AB4106D20122002306E000224FF00043C4
:1008A00002E06FF0010253101AEB06004CEB085106
:1008B00010EB0A0041EB0B01BDE8F04D00F0BDB9B3
:1008C0000EB540F2334102910021CDE900110A46F4
:1008D0000B4600F0C1F903B000BD0EB540F2334243
:1008E00002920022CDE90022134600F0B5F903B0D0
:1008F00000BD00F0004220F00040C10DC0F3160022
:1009000040F400007F2901DA00207047962903DCBB
:10091000C1F19601C84001E096398840002AF4D020
:100920004042704720F00040C10DC0F3160040F473
:1009300000007F2901DA00207047962903DCC1F10D
:100940009601C8407047963988407047C1F30A52F3
:1009500010B5C1F3130140F2FF3341F480119A4204
:1009600001DA002010BD40F233439A42A2F2334232
:1009700003DC524200F083F810BD904010BD00F03F
:10098000004230F000400AD0C10D01F56071C0F3A3
:10099000160042EA0151C208400711437047002087
:1009A0000146704730B5041E71F1000404DB4FF0BE
:1009B0000044404264EB0101141E73F1000405DBA6
:1009C0001C464FF00043524263EB04038B4208BFC6
:1009D000824230BD01F0004330B421F0004150EAC2
:1009E000010206D00A0DA2F56072C1F31301002ABC
:1009F00002DC30BC00207047440F44EAC104C1004F
:100A0000E01830BC00EBC25000F093B8002801DBC6
:100A1000C0F10040002901DBC1F100418142704773
:100A2000002801DBC0F10040002901DBC1F10041D9
:100A30008842704730B50B46014600202022012431
:100A400009E021FA02F59D4205D303FA02F5491B9C
:100A500004FA02F52844151EA2F10102F1DC30BDB2
:100A6000202A04DB203A00FA02F10020704791406E
:100A7000C2F1200320FA03F3194390407047202A63
:100A800004DB203A21FA02F00021704721FA02F338
:100A9000D040C2F120029140084319467047202AF5
:100AA00006DBCB17203A41FA02F043EAE07306E096
:100AB00041FA02F3D040C2F12002914008431946A6
:100AC00070472DE9F04791460F46804604460026C0
:100AD00014F8015B2DB100F04FF90068405DC007CC
:100AE000F6D12B2D02D02D2D18D0641E4A46394642
:100AF000204600F045F927B13968A14201D1C7F875
:100B0000008071054FF002040BD54042002803DD40
:100B10000AF01EF90460A007BDE8F08746F480667D
:100B2000E4E70028F8DA0AF013F904606FF00040F7
:100B3000F2E70029A8BF7047401C490008BF20F019
:100B40000100704710B4B0FA80FC00FA0CF050EAD3
:100B5000010404BF10BC704749B1CCF1200421FA54
:100B600004F411FA0CF118BF012121430843A3EB4F
:100B70000C01CB1D4FEA00614FEA102042BF00205C
:100B800010BC704700EBC35010440029A4BF10BC38
:100B90007047401C490008BF20F0010010BC70479E
:100BA000F0B4002802DCF0BC00207047C0F3C7514D
:100BB000C0F3160040F40000CA0701D14000491EEE
:100BC0003F2202EB6105002211464FF4000626FA8F
:100BD00001F31344D418844201D8001B1A46400084
:100BE000491C1729F3DD5100814202D24FF0FF3139
:100BF00000E0002102EBC550F0BCFFF79ABF10B532
:100C000041000CD0C0F3C751962908DC7E2909DCCD
:100C100006DB410204D000F0004040F07E5010BDE1
:100C2000002010BDC1F19604C4F1200100FA01F1C9
:100C3000E040FFF77EFFA04010BD10B5141E73F119
:100C4000000408DA401C41F1000192185B411A438C
:100C500001D120F0010010BD2DE9F04D92469B46D8
:100C600011B1B1FA81F202E0B0FA80F2203290467E
:100C7000FFF7F6FE04460F4640EA0A0041EA0B0180
:100C800053465A46084313D0114653EA010019D07F
:100C9000C8F140025046FFF7F2FE05460E465046A8
:100CA00059464246FFF7DCFE084305D0012004E028
:100CB00020463946BDE8F08D0020054346EAE0763F
:100CC0002C4337430A986305E40AA0EB080000228E
:100CD000FD0A44EA47540A3002D500200146E9E7FC
:100CE000010510196941DDE9084500196941BDE8B0
:100CF000F04DA2E7C1F30A52C1F3130140F2FF33F2
:100D000041F480119A4202DA00200146704740F215
:100D100033439A42A2F2334202DC5242FFF7AFBEA3
:100D2000FFF79EBE30B5041E71F1000404DB4FF0E6
:100D30000044404264EB0101141E73F1000405DB22
:100D40001C464FF00043524263EB0403994208BF34
:100D5000904230BD064C074D06E0E06840F00103CC
:100D600094E8070098471034AC42F6D3FFF78CFAAA
:100D700024FC020044FC02000048704740FB0200D3
:100D80002DE9F05F82460078002715468B460AF170
:100D90000104B946302801D09DB113E014F8010BCD
:100DA0000127782803D0582801D045B10AE00DB1B9
:100DB000102D07D10027102514F8010B02E008259B
:100DC00000E00A250026B0460EE005FB080005FB02
:100DD00006F1012701EB10461FFA80F8B6F5803FB7
:100DE00000D3B94614F8010B294600F024F8002876
:100DF000EBDABBF1000F05D00FB1641E00E05446E2
:100E0000CBF80040B9F1000F06D009F0A1FF022194
:100E10000160C81EBDE8F09F48EA0640FAE74200BC
:100E200005D0C0F3C7525242914201DC0020704706
:100E300000EBC15070473A2800D2303820F0200231
:100E4000412A01D3A2F13700884201D34FF0FF308D
:100E5000704770B58C1810F8015B15F0070301D1CD
:100E600010F8013B2A1106D110F8012B03E010F80D
:100E7000016B01F8016B5B1EF9D12B0705D4002330
:100E8000521E0DD401F8013BFAE710F8013BCB1AD2
:100E9000921C03E013F8015B01F8015B521EF9D5C7
:100EA000A142D8D3002070BD70477047704770478B
:100EB000704770470FB4F8B505460E463C21002038
:100EC0000BF0B6F904460020208126619DF8200031
:100ED0002071287D84F824003F48E0623F48606329
:100EE0003F48A06300202063A06220603D48056069
:100EF0003D48006830B90020E0803B4804603B4832
:100F000004600CE039480068C088401CE080374825
:100F10000068046035480068006834490860A868C3
:100F200020B900202081AC60EC600BE0E86800890B
:100F3000401C20812089401CE882E8680460E86841
:100F40000068E860E868C18829A009F0C9FEE8687F
:100F500001892EA009F0C4FE09A800902079072875
:100F600031D2DFE800F030290408150722002E48AE
:100F7000206329E000BF00980068E0610098001D30
:100F8000009000980068A0620098001D00901BE08F
:100F90000098006820620098001D0090009800688A
:100FA000A0620098001D00900EE00098006860614B
:100FB0000098001D009000BF00980068A062009893
:100FC000001D009000BF00BF00BF00200090204621
:100FD000F8BC5DF814FB0000D58E0000BD8E00004B
:100FE00041810000B880FF1FBC80FF1FC080FF1F31
:100FF000746869736974656D4964496E41646449D4
:1010000074656D3A2564202020200000746869739F
:101010006C696E654964496E4164644974656D3AF2
:101020002564202020200000ED8E000070B50546CC
:101030000E464C2100200BF0FBF8044600202075E2
:10104000E082A061E06120626062A062E062184814
:10105000A064184860641848E06318486063002082
:101060002064A0632063A060E06020602571266199
:101070001348006830B900202075114804601148F9
:1010800004600CE00F480068007D401C20750D488E
:10109000006804600B48006800680A490860094855
:1010A0000068017D08A009F01BFE204670BD00000D
:1010B000B50E0000118F0000258F0000398F000051
:1010C000B480FF1FB880FF1F746869737061676523
:1010D0006964496E416464506167653A2564202003
:1010E000202000001FB52B492B4800F0B0FD012245
:1010F00011460F2007F074FE00221146042007F06D
:101100006FFE502001F05CF802A800F0C0FE002045
:101110008DF808008DF809008DF80A0005208DF87B
:101120000C0002A800F018FE684600F067FD0020E1
:101130000190019820F01F00801C0190312101983E
:1011400061F310200190019820F0704000F1805070
:101150000190019820F0706000F18070019001987A
:1011600020F4700000F58010019000208DF8000040
:10117000019820F080000190684600F0F5FB4FF4E4
:10118000404001F0A5FE06F08BFF052000F069FD50
:101190001FBD0000102211007777770700B585B0DA
:1011A000684601F0D3FE4FF40040ADF810006A46E7
:1011B0000221052001F028FC684601F0C7FE4FF42B
:1011C0000040ADF810006A460121052001F01CFC2A
:1011D000684601F0BBFE0220ADF802000120ADF828
:1011E00000000020ADF810006A460421022001F042
:1011F0000BFC684601F0AAFE0220ADF802000120B7
:10120000ADF800000020ADF810006A460821022069
:1012100001F0FAFB0021082001F064FD684601F0AE
:1012200095FE0020ADF810006A464FF4004101F031
:10123000EBFB684601F08AFE0220ADF802000120B7
:10124000ADF800000020ADF810006A464FF4806150
:1012500001F0DAFB684601F079FE0220ADF80200E9
:101260000120ADF800000020ADF810006A464FF4F0
:10127000007101F0C9FB684601F068FE0220ADF87C
:1012800002000120ADF800000420ADF80400402069
:10129000ADF80A000020ADF810006A464FF48071E6
:1012A00001F0B2FB684601F051FE0220ADF80200E9
:1012B0000120ADF800000020ADF810006A464FF4A0
:1012C0000071022001F0A0FB684601F03FFE002003
:1012D000ADF810006A464FF48071022001F094FBD3
:1012E000684601F033FE0020ADF810006A46802108
:1012F000022001F089FB684601F028FE0220ADF8CB
:1013000002000020ADF810006A46082101F07CFBC5
:1013100004222021002001F033FD684601F016FE72
:101320000020ADF810006A46102101F06DFB684600
:1013300001F00CFE0020ADF810006A4610210220DA
:1013400001F062FB684601F001FE0020ADF81000DC
:101350006A462021022001F057FB684601F0F6FDA5
:101360000220ADF802000120ADF800000020ADF829
:1013700010006A460221084601F046FB282201219E
:10138000002001F0FDFC29220221002001F0F8FCE0
:101390002B220421002001F0F3FC20225101022025
:1013A00001F0EEFC21224FF48051022001F0E8FC14
:1013B0000021042001F096FC20220821012001F0E8
:1013C000DFFC21224021012001F0DAFC05B000BD44
:1013D00000B58FB00121080401F09EFA04A807F0BF
:1013E000E3FB002004900590082006900020089060
:1013F000099018200A904FF480600B9000200C9008
:101400000D900E9004A9134807F036F901A807F0D3
:101410003DF8002001900290039001A90D4807F0CB
:101420003FF800210B4807F025FB0021094807F091
:101430007BFA4FF48071074807F0BAFA00224FF4A4
:101440008071044807F058FB0121024806F0CCFFE8
:101450000FB000BD00C0014000B589B001A800F088
:10146000F4F90498C008074908604FF47A7000F056
:101470000DF80120044908700020487014200872FB
:1014800009B000BD1880FF1F0085FF1F10B586B092
:1014900004460121082001F079FA03A808F01CFE97
:1014A00000208DF80C0030208DF80D0000218DF803
:1014B0000E1002218DF80F10601E059003A913482D
:1014C00008F098FA684608F055FC60080090012082
:1014D000ADF804000020ADF806000320ADF80800C8
:1014E000ADF80A0004222021002001F049FC6A46E0
:1014F0000021064808F046FB01220021034808F0BD
:10150000E7FB024808F0AAFD06B010BD00540140F8
:1015100070B505460C4808F0A1FD0C480560002494
:1015200001E0601C84B20948006810F824003D28DE
:10153000F7D10748848000200549C8800120487001
:101540000020488070BD0000005401401C80FF1F37
:101550000085FF1F70B529484078002847D02748EC
:101560000078002843D02548C088244989888842CB
:1015700036DC22484088401E204948800846408882
:101580004FF6FF71884238D31C49C9881C4A12683B
:1015900012F821101B4A32F8110007F0DFFE044652
:1015A0002146194808F0E2FC1448007A604364219F
:1015B000B0FBF1F52A460021134808F0EBFB0F4879
:1015C000C0880F49096801EB800040880B494880BA
:1015D0000846C088401CC8800B4808F001FD0CE09C
:1015E000094808F03BFD00200449487005E0064822
:1015F00008F034FD00200149487070BD0085FF1FD0
:101600001C80FF1F8C0201000054014070B504468D
:101610001CB9084808F022FD70BD064808F0E0FC3F
:10162000204607F09BFE05462946024808F09EFC2E
:1016300000BFF1E70054014070B53A48008800F45B
:10164000004000286DD03848007841284CD043280D
:1016500029D0482802D04C2851D10FE033A008F0FF
:10166000ECFE36A008F0E9FE3DA008F0E6FE45A03D
:1016700008F0E3FE4CA008F0E0FE4AE02A48C01D56
:10168000FEF790FEC4B22848001DFEF78BFEC5B2DF
:101690002548401CFEF786FEC6B222462946304643
:1016A00009F0FEFA35E0204840784D280AD11E485E
:1016B0008078442806D145A008F0BFFE49A008F074
:1016C000BCFE10E01848407841280CD116488078BC
:1016D000542808D14D4808F0B0FE42A008F0ADFEF5
:1016E0004BA008F0AAFE14E00F484078542805D11A
:1016F0000D4808F0A2FE19A008F09FFE09E00A4874
:1017000008F09BFE4CA008F098FE4CA008F095FE57
:1017100000BF00BF00200349088020210248FEF7D7
:1017200036FE70BD5080FF1F6486FF1F48656C6CDD
:101730006F20484F5045210D0A0000002020205FF7
:101740005F20205F5F202020205F5F5F202020201F
:101750005F5F5F5F202020205F5F5F5F0D0A0000FA
:1017600020202F202F5F2F202F202F205F5F202071
:101770002F202F202D2D2D202F202F5F5F5F5F2FFB
:101780000D0A0000202F205F5F20202F202F202F08
:101790005F2F202F202F202D2D2D5F2F202F5F5FDB
:1017A0005F2F0D0A000000002F202F202F5F2F2019
:1017B0002F205F5F5F202F202F5F2F2020202020F1
:1017C0002F5F5F5F5F5F2F0D0A00000048285361A5
:1017D000794869290D0A4C28536574524742290DEE
:1017E0000A000000E68C87E4BBA4E5B0BEE5B7B410
:1017F000E4B88AE8A681E8AEB0E5BE97E58AA0E540
:101800009B9EE8BDA6E599A2210D0A00B4FB02004B
:10181000E4BFAEE694B9E5AE8CE8AEB0E5BE97E5C0
:101820008F91E68C87E4BBA4E8BDAFE5A48DE4BD51
:101830008DE599A2210D0A002D3E00004E6F742007
:10184000436D64210D0A0000704770B50446002501
:101850000CB9ED1E02E0204601F088FB284670BD61
:1018600010B5044600BF24B144F06900692800D1D6
:1018700004E040F28B5106A000F024FC00BF0B48AE
:101880000078204008B1012010BD0020FCE70000D6
:101890006472697665725C7372635C686333325F2D
:1018A0006C6C5F636C6B2E63000000003C40054075
:1018B00070B50446002500BF0CB1012C00D104E036
:1018C00040F2E5411FA000F0FDFB00BF00BF24482F
:1018D000008800F0010000B104E040F2E64119A0E8
:1018E00000F0F0FB00BF64B91E48007800F007006C
:1018F000052801D1C54322E001201A49091D0870BD
:101900001DE01848DA300068C0F3C01030B94FF459
:101910008051082000F0ADF9054605E04FF48051F4
:10192000012000F0A6F905464DB900200D49091D1A
:1019300008704FF48051202000F09BF9054628469E
:1019400070BD00006472697665725C7372635C6876
:101950006333325F6C6C5F636C6B2E63000000005E
:10196000FE430540264005402DE9F041044614B9E8
:101970006FF002061FE100BF2079C0F3C01018B15C
:101980002079C0F3C01000B104E04FF497618BA040
:1019900000F098FB00BF00BF207900F01F00401C42
:1019A000182805D8207900F01F00401C00B104E081
:1019B00040F2B94181A000F085FB00BF00BF606824
:1019C000C0F30820401CB0F5F07F06D86068C0F373
:1019D0000820401C142800D304E040F2BA4177A04C
:1019E00000F070FB00BF00BF0121606801EB1070C8
:1019F000102805D8606801EB1070022800D304E0BD
:101A000040F2BB416DA000F05DFB00BF2079C0F348
:101A1000C01008B9704901E070480168207900F0F1
:101A20001F00401CB1FBF0F76068C0F30820401CA9
:101A300000FB07F500BF6A48874203D86948874220
:101A400000D304E04FF498615CA000F03BFB00BFC2
:101A500000BF6548854203D84010854200D304E0AA
:101A600040F2C14155A000F02DFB00BF00BF012195
:101A7000606801EB1070B5FBF0F05C49884209D852
:101A80000121606801EB1070B5FBF0F05849884205
:101A900000D304E040F2C24148A000F013FB00BFB5
:101AA00000BF6068C0F30360401C102806D860685F
:101AB000C0F30360401C022800D304E040F2C3419D
:101AC0003EA000F0FFFA00BF00BF6068C0F3035003
:101AD000401C102806D86068C0F30350401C022840
:101AE00000D304E040F2C44134A000F0EBFA00BFA0
:101AF00000BF6068C0F30350401CB5FBF0F03B49E9
:101B0000884209D86068C0F30350401CB5FBF0F070
:101B10003749884200D304E040F2C54127A000F0D5
:101B2000D1FA00BF00BF6068C0F30360401CB5FB82
:101B3000F0F02E49884209D86068C0F30360401C69
:101B4000B5FBF0F02A49884200D304E040F2C641D8
:101B50001AA000F0B7FA00BF00BF2078012801D01A
:101B6000207800B904E04FF4996114A000F0AAFABB
:101B700000BF00BF1F48008800F0010000B104E072
:101B800040F2C9410DA000F09DFA00BF2079C109C3
:101B90001948006861F3C710174908606068086059
:101BA000207820B90120FFF783FE064603E00020DD
:101BB000FFF77EFE06463046BDE8F0816472697626
:101BC00065725C7372635C686333325F6C6C5F6315
:101BD0006C6B2E630000000000366E01381600208A
:101BE00040787D0140420F0000389C1C00C2EB0B86
:101BF000C0E1E400FE4305400041054001460020ED
:101C000009B9C01E22E000224A604A6822F0800220
:101C10004A604A6822F01F024A6013234A6863F34D
:101C200010224A604A6822F0704202F180524A60F3
:101C30004A6822F0706202F180724A604A6822F4B7
:101C4000700202F580124A6001220A70704770B576
:101C500004460D462946204607F078F907F066FD50
:101C600070BD10B50446204607F0FEFA07F05EFD91
:101C700010BDF8B505460C46002000906FF0070631
:101C800009E02846FFF7ECFD012801D1002605E018
:101C90000098401C00900098A042F2D900BF304646
:101CA000F8BD000070B50446002500BF0CB1012C42
:101CB00000D104E04FF467711EA000F003FA00BFEA
:101CC00000BF2348008800F0010000B104E040F2AA
:101CD0009D3118A000F0F6F900BFFCB91D4800784E
:101CE00000F00700032802D16FF0050520E0194835
:101CF000DA300068C0F3C01058B91648001D0078EB
:101D000010B96FF0050513E0012012490C3108707D
:101D10000EE001200F490C31087009E000200D4948
:101D20000C3108704FF480510820FFF7A2FF0546E0
:101D3000284670BD6472697665725C7372635C6814
:101D40006333325F6C6C5F636C6B2E63000000006A
:101D5000FE4305402640054070B5044614B96FF0B7
:101D600002057FE000BF2078012801D0207800B96B
:101D700004E04FF45F713CA000F0A4F900BF00BF85
:101D8000607840B16078102805D06078202802D0B3
:101D90006078302800D104E040F27D3132A000F0BC
:101DA00091F900BF00BFA07810B1A078402800D101
:101DB00004E040F27E312CA000F084F900BF00BFA7
:101DC000E078802801D0E07800B904E040F27F316B
:101DD00025A000F077F900BF00BF2079012817D0B7
:101DE0002079022814D02079032811D020790428E2
:101DF0000ED0207905280BD02079062808D020792C
:101E0000072805D02079082802D02079092800D198
:101E100004E04FF4607114A000F054F900BF00BF5B
:101E20001848008800F0010000B104E040F2813160
:101E30000DA000F047F900BF207913490870E07841
:101E400061780843A17808430E4912310870207860
:101E500020B90120FFF726FF054603E00020FFF729
:101E600021FF0546284670BD6472697665725C7311
:101E700072635C686333325F6C6C5F636C6B2E63A0
:101E800000000000FE430540A240054070470146A7
:101E9000002009B9C01E08E001220A7000228A70E1
:101EA0004A708022CA7005220A7170472DE9F04FEE
:101EB0008FB08346894601200990801E089000BF9C
:101EC0007348834508D07348834505D072488345DD
:101ED00002D07248834500D104E040F2A51170A001
:101EE00000F0F0F800BFD9F80040D9F80460002CE9
:101EF0007ED0002EFCD0B000B4FBF0F0451EFF2DCC
:101F00007ED8C9F80850B000B4FBF0F100FB1140D6
:101F10000B900B9820B90020C9F8100008906FE0D2
:101F200000206B1C40414FF0040C0022A3FB0C1E50
:101F300000FB0CE003FB02020020A1FB067302FB86
:101F4000063201FB00284FF480710022A7FB01C379
:101F500008FB013107FB021052084FEA34031CEB67
:101F60000301504122460023CDE906100846079997
:101F7000FEF7C2F98021B0EB010ABAF17F0F3DD81C
:101F8000C9F80CA048004FF0000C3B46A3FB002E04
:101F900008FB00E007FB0C081746002080221AEB24
:101FA000020240EB00030021A2FB040C03FB04C36C
:101FB00002FB0131CDE90C0138464146FEF78DFCAC
:101FC000CDE90201DDE90C01FEF787FCCDE9000156
:101FD000DDE90223FEF705FCCDE90401FEF7FAFC7A
:101FE0004FF07E510790FEF76DFA0A900A9800E0D4
:101FF00045E0C9F810000020089001E00020099099
:102000000998E0BB04EB84004000B100B0FBF1F0A4
:10201000401D0A21B0FBF1F0451EFF2D34D8C9F850
:102020000850002015F1010C404104230022ACFBB4
:10203000031E00FB03E00CFB02020023A1FB067C55
:1020400002FB06C201FB032838464146FEF745FC69
:10205000CDE902012046FEF733FCCDE90001DDE9C0
:102060000223FEF7BEFBCDE90401FEF7B3FC4FF0FF
:102070007E510790FEF726FA0A900A9800E003E0E6
:10208000C9F810000020089008980FB0BDE8F08F44
:1020900000D0014000D40140001002400014024072
:1020A0006472697665725C7372635C686333325F15
:1020B0006C6C5F75736172742E63000070477047BB
:1020C0007047704704460D462A46214602A008F094
:1020D00007FE00BFFEE7000057726F6E6720706159
:1020E00072616D65746572732076616C75653A20F6
:1020F00066696C65202573206F6E206C696E6520A3
:1021000025640D0A0000000008B50D49096AC1F3F5
:1021100002630C490968D94041F270731944491EA1
:10212000B1FBF3F206E0009200BF00994B1E009352
:102130000029FAD1011EA0F10100F4D108BD000070
:10214000004005403416002008B50C49096AC1F367
:1021500002630B490968D9400A4B1944491EB1FB77
:10216000F3F206E0009200BF00994B1E0093002995
:10217000FAD1011EA0F10100F4D108BD00400540D4
:1021800034160020808D5B007047704770477047A1
:102190007047704770477047704770477047704787
:1021A0007047704770477047704770477047704777
:1021B000704770477047704770477047704700001E
:1021C00070B50446002500BF1D480068012800D1F5
:1021D00004E040F24F111BA0FFF774FF00BF00BFE7
:1021E000F02C00D804E04FF4A87116A0FFF76AFFA6
:1021F00000BF13480830006820F0F00004F0F00140
:1022000008430F490831086010E06D1C1448006A4B
:10221000C0F3026113480068C84044F62061B0FB77
:10222000F1F0A84202D26FF0070070BD04480830F8
:10223000006800F0F000A042E7D10020F5E70000C0
:10224000000401406472697665725C7372635C6855
:102250006333325F6C6C5F65666D2E630000000057
:1022600000400540341600207047704770477047A3
:1022700070477047704770477047704770477047A6
:102280007047704770477047704770477047704796
:1022900010B50120024908700248FFF739F910BD56
:1022A0000580FF1F0803010010B500F069F80D4913
:1022B0000988084400B20B4908800846B0F90000BC
:1022C000012803DB00200880012010BD0548B0F97B
:1022D0000000002804DA002002490880401EF4E7CC
:1022E0000020F2E72480FF1F10B5FFF7DDFF044652
:1022F000002C02DDFFF7CCFF03E0002C01DA00F038
:102300005DF810BD0EB50121102000F03FFB6846BE
:1023100007F0E2FE01208DF800004020ADF8040037
:102320000421ADF806106946144807F063FB052246
:102330004021002000F024FD05228021002000F033
:102340001FFD032201210D4807F0A0FD03220221F9
:102350000A4807F09BFD01221146084807F0B0FA31
:1023600001220221054807F0ABFA4FF4004103486F
:1023700007F052FD014807F033FE0EBD0058014042
:1023800070B50B4807F0FEFA84B20A48007830B9FD
:1023900009480480012007490870002070BD0648E4
:1023A0000088201A05B2044804802846F6E7000099
:1023B000005801402280FF1F2080FF1F10B502201F
:1023C000024908700248FFF7A3F810BD0580FF1FFF
:1023D00008030100024800780249087070470000B5
:1023E0006381FF1F0085FF1F10B503480068FEF7DB
:1023F00099FA0249087210BD9881FF1F0085FF1FDE
:102400002DE9FE435148007830B14FF4E13007F038
:10241000D5FF00204D4908704D48007868B1402331
:1024200080220021084605F00DFD01F09BFF10B948
:10243000002047490870BDE8FE83FFF7FDF84548D6
:10244000006828B944A20F21642005F00DFE04E0C5
:1024500042A20F21642005F007FE41A20F210020B7
:1024600005F010FE41A21E21002005F0FDFD404AAE
:102470002D21002005F006FE3E4801683E48006818
:10248000FEF7C4FA14D14FF081413B480068FEF7D3
:10249000BDFA03D139483749086009E03749364861
:1024A0000068FEF7B3FA03D14FF08140314908606C
:1024B00064223049304801F0C3FF2F480068FEF71E
:1024C00018FA04462C480068FEF713FA05464FF048
:1024D000814129480068FEF72DF881462849FDF71B
:1024E000F4FF8046FEF705FA06464FF08041224889
:1024F0000068FEF71FF881462249FDF7E6FF804697
:10250000FEF7F7F90746202003461F4A3146CDE97A
:1025100001540090384605F08FFB1C4800780128D4
:1025200003D11BA007F089FF0EE0184800780228AD
:102530000AD14FF081401049086001200449087019
:102540004FF086401449086000BF74E7D482FF1F33
:10255000D582FF1F1404A742455252004F4B000082
:10256000E8939DE7899953505000000052583A0073
:102570006486FF1FDC82FF1FD882FF1F0000C0415E
:10258000000048420000EC42D0050100D880FF1F47
:1025900048656C6C6F000000FC80FF1F70470000F6
:1025A00010B5064840690078012803D1022005F0E3
:1025B000EDFC02E0002005F0E9FC10BDBC81FF1F2E
:1025C00010B51248007868B111A20F21002005F063
:1025D0004BFD12A21E21002005F046FD00200B49F4
:1025E00008700BE012A005F0ABFCC0F18000C0F356
:1025F0004F040FA22321204605F036FD1048007835
:10260000022802D101200149087010BDF082FF1F8D
:102610004E6F20464154465321000000436F6E66C2
:102620006967204E6F742053617665640000000076
:10263000536176656420537563636573732100008D
:10264000D880FF1F38B523480068FEF76BF984B2C5
:1026500021483223282200210090204605F0AAFCC0
:102660001EA20F21322005F0FFFC1FA21E212D20EB
:1026700005F008FD20A22D21084605F003FD22A249
:102680003C210A2005F0FEFC022005F075FC4023E9
:1026900080220021084605F0D5FB00200F231E22D2
:1026A00003210090562005F0FDFB012005F064FC9D
:1026B00055221A49074801F07DFF19480078022881
:1026C00006D11848034908604FF086401649086053
:1026D00038BD0000C482FF1F500A0100484F50451A
:1026E000202050726F000000E78988E69CAC3A20F9
:1026F000566572312E330000E582A8E5AD983A2088
:102700003136204D4200000020427920406B6B6C36
:102710005F616B61E7A791E889AF0000C882FF1F86
:10272000D880FF1F0000A042FC80FF1F2DE9FC4164
:102730003F49404804F0DAFE3FA20D21002005F099
:1027400093FC3FA20D21642005F08EFC022003467D
:10275000009038480D210268322005F03FFC02202D
:102760000346009032481A210268002005F036FC2A
:1027700002200346009033481A210268322005F0F7
:102780002DFC31492A480068FEF74AF905D32F4944
:1027900027480068FEF73AF903D22D482D49086012
:1027A00002E000202B4908603C222A492A4801F017
:1027B00001FF022005F0E0FB27480068FEF7B2F8B1
:1027C00084B2202322460021084605F03BFB234922
:1027D00021480068FEF724F905D220491E48006808
:1027E000FDF71EFE01E01C4800680746FEF781F871
:1027F00004B219480068FEF77CF805B21648006874
:10280000FEF777F806B2202003462A460021CDE9DC
:102810000040304605F06EFB012005F0ADFB10488E
:102820000078022802D100200E490860BDE8FC8132
:10283000A481FF1FA881FF1F494D553A00000000E9
:102840004F4B0000AC81FF1F00002041000020C161
:102850000000A842C082FF1FBC82FF1F0000C041D1
:10286000D880FF1FFC80FF1F10B505F035F910BDA3
:1028700010B51448007860B140238022002108463A
:1028800005F0E0FA01F06EFD10B900200D49087066
:1028900010BD0DA005F054FBC0F18000C0F34F0443
:1028A00009A21E21204605F0EDFB0B480078022806
:1028B00006D10120034908704FF08640074908609F
:1028C00000BFE5E7E082FF1F555342204469736172
:1028D000626C656400000000D880FF1FFC80FF1F51
:1028E00070B50A480068FEF71DF8C4B208480068D1
:1028F000FEF718F8C5B207480068FEF713F8C6B22D
:1029000022462946304608F0CBF970BD8881FF1F6A
:102910008481FF1F8081FF1F70B504460D4600BFF4
:102920002CB1114820431049884200D103E0842192
:102930000EA0FFF7C7FB00BF00BF0DB1012D00D1F6
:1029400003E0852109A0FFF7BDFB00BF012D05D1E4
:102950000D484068A0430C49486004E00A484068BC
:1029600020430949486070BD79FD0F0F6472697694
:1029700065725C7372635C686333325F6C6C5F6654
:1029800063672E63000000000080044070B50446B9
:102990000D4600BF2CB1114820431049884200D198
:1029A00003E096210EA0FFF78DFB00BF00BF0DB125
:1029B000012D00D103E0972109A0FFF783FB00BFA1
:1029C000012D05D10D488068A0430C49886004E0C2
:1029D0000A48806820430949886070BDFF87070066
:1029E0006472697665725C7372635C686333325FCC
:1029F0006C6C5F6663672E6300000000008004401B
:102A000070477047704770472DE9F05F05460E46E6
:102A100014464FF0000B14B96FF0020BD9E000BF61
:102A20006D48008800F0010000B104E04FF48071AF
:102A30006AA0FFF747FB00BF00BF4DB1012D07D0D3
:102A4000022D05D0032D03D0042D01D0052D00D17A
:102A500004E040F2011161A0FFF734FB00BF00BFAA
:102A600016B1B0B200B104E04FF481715BA0FFF782
:102A700029FB00BF00BF208810B12088012800D1A9
:102A800004E040F2031155A0FFF71CFB00BF00BF9C
:102A9000608810B16088022800D104E04FF4827190
:102AA0004EA0FFF70FFB00BF00BFA08810B1A088A9
:102AB000042800D104E040F2051148A0FFF702FB12
:102AC00000BF00BFE08828B1E088102802D0E0886D
:102AD000202800D104E04FF4837140A0FFF7F2FA00
:102AE00000BF00BF208918B12089B0F5804F00D108
:102AF00004E040F2071139A0FFF7E4FA00BF00BF7D
:102B0000608910B16089402800D104E04FF48471DD
:102B100032A0FFF7D7FA00BF00BFA08918B1A08983
:102B2000B0F5007F00D104E040F209112BA0FFF7BF
:102B3000C9FA00BF00BFE08918B1E089B0F5805F35
:102B400000D104E04FF4857124A0FFF7BBFA00BF69
:102B500000BF208A18B1208AB0F5004F00D104E0F0
:102B600040F20B111DA0FFF7ADFA00BF00272DE0CA
:102B700006F0010028B3208861880843A188084333
:102B8000E188084361890843A1890843E189084332
:102B9000218940EA010A45F27728208A40EA0A0A98
:102BA00048F400480C48001D00EB851000EB870935
:102BB000B9F8000020EA08000AEA08010843A9F869
:102BC0000000761006B903E0781CC7B2102FCFD3EF
:102BD00000BF5846BDE8F09FFC3B05406472697633
:102BE00065725C7372635C686333325F6C6C5F67E1
:102BF00070696F2E6300000070B504460D4600BF7B
:102C00004CB1012C07D0022C05D0032C03D0042C8E
:102C100001D0052C00D104E04FF4FF710CA0FFF7A8
:102C200051FA00BF00BF15B1A8B200B104E040F2F4
:102C3000FF1107A0FFF746FA00BF0C4901EB041093
:102C4000B0F80008284008B1012070BD0020FCE762
:102C50006472697665725C7372635C686333325F59
:102C60006C6C5F6770696F2E630000000030054078
:102C700070B504460D4600BF4CB1012C07D0022CA4
:102C800005D0032C03D0042C01D0052C00D104E086
:102C900040F24A210BA0FFF715FA00BF00BF15B1A3
:102CA000A8B200B104E040F24B2106A0FFF70AFAF7
:102CB00000BF0B48102101FB0406308828433080F8
:102CC00070BD00006472697665725C7372635C68E3
:102CD0006333325F6C6C5F6770696F2E6300000056
:102CE0000A38054070B504460D4600BF24B144F0D3
:102CF0001F001F2800D104E04FF4B27118A0FFF7A5
:102D0000E1F900BF00BF0DB1012D00D104E040F298
:102D1000651113A0FFF7D6F900BF00BF1748008860
:102D200000F0010000B104E04FF4B3710CA0FFF714
:102D3000C9F900BF012D09D110480838008804F0F6
:102D40001F0108430D490839088008E00B4808387E
:102D5000008804F01F01884308490839088070BDC5
:102D60006472697665725C7372635C686333325F48
:102D70006C6C5F6770696F2E63000000FC3B054060
:102D80002DE9F04104460D46164600BF4CB1012C1A
:102D900007D0022C05D0032C03D0042C01D0052C25
:102DA00000D104E04FF4BE7124A0FFF78BF900BFFF
:102DB00000BF15B1A8B200B104E040F27D111FA020
:102DC000FFF780F900BF00BF0F2E03D9202E02D3DA
:102DD0003B2E00D804E04FF4BF7118A0FFF772F942
:102DE00000BF00BF1C48008800F0010000B104E0F3
:102DF00040F27F1111A0FFF765F900BF002717E02F
:102E000005F0010078B11448801D00EB841000EB40
:102E10008708B8F800004FF6C071084006F03F017F
:102E20000843A8F800006D1005B903E0781CC7B28C
:102E3000102FE5D300BFBDE8F08100006472697611
:102E400065725C7372635C686333325F6C6C5F677E
:102E500070696F2E63000000FC3B054070B50446AE
:102E60000D4600BF4CB1012C07D0022C05D0032C1D
:102E700003D0042C01D0052C00D104E04FF40E71D6
:102E80000BA0FFF71FF900BF00BF15B1A8B200B13A
:102E900004E040F2392106A0FFF714F900BF0B4807
:102EA000102101FB040630882843308070BD0000EB
:102EB0006472697665725C7372635C686333325FF7
:102EC0006C6C5F6770696F2E630000000838054006
:102ED00010B5044600BF44B1B4F5804F05D0B4F539
:102EE000004F02D0B4F5404F00D104E04FF4ED7133
:102EF0000EA0FFF7E7F800BF00BF1348008800F0FE
:102F0000010000B104E040F2DB1108A0FFF7DAF89D
:102F100000BF0D48001F0088C0F30D0004F44041BD
:102F200008430949091F088010BD000064726976D2
:102F300065725C7372635C686333325F6C6C5F678D
:102F400070696F2E63000000FC3B054001460020C5
:102F500009B9C01E09E000220A804A80CA800A829C
:102F60000A814A818A81CA818A807047F0B53E4EC3
:102F7000367806F00706062E43D2DFE806F0030790
:102F80000A0E1115394E366806603BE0384E066071
:102F900038E04FF40046066034E0364E066031E01B
:102FA0004FF4004606602DE02F4EDA363668330FB8
:102FB0002D4E263ED6F80061C6F307222A4EDA3699
:102FC000366806F01F04284E263ED6F80061C6F388
:102FD000C01656B9661C274FB7FBF6F6571C7E4342
:102FE0005F1CB6FBF7F606600AE0204E3568661CEB
:102FF000B5FBF6F6571C7E435F1CB6FBF7F6066082
:1030000000E000BF00BF1849891F174E263E366AF0
:103010000E6006680F68C7F30267FE4046600F78CF
:10302000C7F302170668FE40C66006680F68C7F35C
:103030000247FE4086610F88C7F302370668FE40EC
:10304000466106680F68C7F30257FE40C6610F78F5
:1030500007F007070668FE4086600F88C7F302275F
:103060000668FE400661F0BD264005403816002087
:1030700000127A0000366E012DE9FE43012501247D
:103080003D4801903D4809F093FB3D493B480AF01B
:1030900041F86CE004F0CEFE65B1402380220021AF
:1030A000084604F0CFFE01F05DF900B9002504F0F8
:1030B00051FF5CE0012C4BD10298FDF733FC86B246
:1030C00030490298FDF7ACF981464FF08641FDF793
:1030D000FCF98046FDF726FC87B201200F2332461B
:1030E00017210090384604F0F1FE27A004F028FFD5
:1030F000C0F18000C0F34F0623A22621304604F021
:10310000C1FF28A004F01CFFC0F18000C0F34F06EF
:1031100024A20F21304604F0B5FF022004F02CFF5A
:103120000298FDF7FFFB86B24FF082410298FDF74F
:1031300001FA8046FDF7F6FB87B200200F233246E6
:1031400019210090384604F0ADFE012004F014FF70
:103150005F2201A902A801F02DFA28B9012C03D1A0
:1031600001F0BAFA002403E004F0F4FE00BF91E796
:1031700000BFBDE8FE8300000000D2422006002010
:103180000E1D01000000E04020E8AFB7E7AD89E583
:10319000BE85E5889DE5A78BE58C96E5AE8CE68837
:1031A0009020000048656C6C6F484F50450000004F
:1031B00010B5A1480088002842D1A0480078022814
:1031C00058D19F48007800283BD09E490968086A7A
:1031D00008F038FE9C4901EB00109A49C468096860
:1031E000096A08682146FDF71BF996490968096ACA
:1031F000086094490968086A08F024FE924901EBC6
:103200000010904984680968096A08682146FDF73A
:1032100007FC0CD88B490968086A08F013FE8A4934
:1032200001EB0010806887490968096A08608548D1
:103230000068806A002803D082490968886A80474C
:10324000F8E082480088401C00B2804908800120D4
:10325000794908807E480068C06800897B49B1F9D7
:103260000010884202DA00207849088079A007F02F
:1032700037FDDFE071480078012858D170480078A8
:10328000D8B370490968086A08F0DCFD6E4901EBA3
:1032900000106C49C4680968096A08682146FDF78E
:1032A00011F968490968096A086066490968086A85
:1032B00008F0C8FD644901EB0010624944680968E0
:1032C000096A08682146FDF7A1FB0CD85D49096829
:1032D000086A08F0B7FD5C4901EB001040685949E5
:1032E0000968096A086057480068806A0028A7D002
:1032F00054490968886A80479CE0FFE75348008882
:10330000401E00B25149088002204B4908804F48B6
:10331000B0F90000002806DA4D480068C06800894E
:1033200000B24A4908804FA007F0DAFC82E0514819
:103330000078012862D1434800680079062857D2F6
:10334000DFE800F0561703344D1B03203A4908808C
:103350003C48006890F825004749088039480068D3
:1033600090F82600394908803948006843490860C8
:103370003FE00120424908703BE032480068C069E4
:1033800058B130480068C069007808B9012000E0F1
:1033900000202C490968C96908702A480068806AB9
:1033A00018B128490968886A804722E025480068E2
:1033B000C06958B123480068C069007808B9012085
:1033C00000E000201F490968C96908701D480068AD
:1033D000806A18B11B490968886A804709E0184863
:1033E000007808B9012000E000201549087000E0CD
:1033F00000BF00BF23A007F073FC1BE01D4800784E
:10340000022817D11D48006888B103200A490880A6
:103410001A480068007D1849088000200B49088080
:103420000B480068154908600020054908701AA07B
:1034300007F056FC10BD0000D480FF1FD980FF1F8D
:10344000D780FF1FCC80FF1FD481FF1FD280FF1FBA
:10345000C480FF1F456E6F6364657220476F0D0A5D
:1034600000000000456E6F63646572204261636B0B
:103470000D0A0000D880FF1FD080FF1FC880FF1FEB
:103480001581FF1F4B65792073696E676C6520702D
:10349000726573730D0A00004B6579206C6F6E675F
:1034A0002070726573730D0A000000002DE9F84F5B
:1034B00004460E46AE480068007808B3AD49096E70
:1034C0000868FDF72FFAC5B22A4604F11C01081F4F
:1034D00001F070F8A74909690868FDF723FAC5B239
:1034E0002A46A549A54801F065F84B22A449A548FC
:1034F00001F060F84122A449A44801F05BF80DE016
:10350000E069A0619C4800689C4908609C4800688C
:103510009C4908609C4800689C490860206AFDF747
:10352000E8F907B2012004F01DFDA56830E0298903
:103530009748B0F90000401F814206DD2989944870
:10354000B0F90000801D814200DB20E02889FCF7F3
:103550003FFF83468B4801685846FCF7B9FF824617
:103560008C48A169FCF75CFF51460090FCF758FFBE
:103570008146FDF7BEF90FFA80F8E868B9B200900D
:103580001FFA88F020231A4604F014FD00BF2D68AE
:103590002889E18A884204DA95F82400217D88424E
:1035A000C5D0002004F0DEFC7B4804F0F9FC77482D
:1035B00001687A48FCF786FF834607F13600FCF77E
:1035C000FEFE59460090FCF72BFF8246FDF7AAF954
:1035D00085B2306904F0B4FCC0F18000C0F34F093B
:1035E00029464846326904F03FFD6D4804F0D8FC96
:1035F000022004F0C1FC206AFDF794F985B25F480F
:1036000001686448FCF70CFF8246FDF78BF91FFA4E
:1036100080F9002020231A4629460090484604F0ED
:1036200041FC5A480068FDF77DF91FFA80F94FF018
:103630008441206AFCF7F4FE83464FF08141FCF799
:10364000EFFE0546FDF76EF91FFA80FA18234A4689
:103650005146002004F0F6FB012004F08DFC514897
:10366000B0F9000006287FD2DFE800F00304223A18
:1036700057707AE04649B1F9001001EB41010901A8
:103680004842FCF79CFEE06147493C480068FCF773
:1036900019FF3A49086045483C4908603C480088A1
:1036A00010B900203749086000203E4908805CE0DE
:1036B0003749B1F9001001EB410109014842FCF71B
:1036C0007EFEE06138492D480068FCF7A9FE2B49D1
:1036D000086036482D49086000203249088044E0DF
:1036E000002060623248206232482649086023493F
:1036F00008603148314908602549B1F9001001EBF3
:10370000410109014842FCF75AFEE06127481F4980
:10371000086004202349088027E04B2204F124019B
:10372000081F00F08DFE28B92548007840F0FF0002
:103730002349087022480078FF2805D1002020493D
:1037400008700520174908800FE00DE01049B1F915
:10375000001001EB410109014842FCF730FEE06135
:1037600000201049088000E000BF00BFBDE8F88FCE
:10377000BC81FF1FD481FF1FE880FF1FE480FF1F73
:103780000081FF1FFC80FF1F1081FF1F0C81FF1FA6
:10379000D280FF1F0000404236F10200000070415D
:1037A0000E1D0100D480FF1F0000C041000080C03A
:1037B00000002042000020430000C042DC80FF1FC8
:1037C000D680FF1F03B597B0FE4800680078B0B3FD
:1037D000FD48006D00681390FDF7A4F8C0B20246E2
:1037E000149017992C311798283000F0E3FEF64812
:1037F000006A00681390FDF795F8C0B20246F349DD
:103800001490F34800F0D6FEEF48006B0068139068
:10381000FDF788F8C0B20246EE491490EE4800F079
:10382000C9FEE948006C00681390FDF77BF8C0B250
:103830000246EA491490EA4800F0BCFE0FE0FFE7B8
:103840001798C16A8162E1480068E1490860E1486F
:103850000068E1490860E1480068E149086017989C
:1038600080691490FDF745F800B2169017988068AB
:103870001490AEE214980089139000EBD0704110C0
:103880001398A0EB410000287FD11798C08A0190BF
:10389000FCF79EFD014602904FF08540FCF74AFE82
:1038A0000390FDF76CF8CDE9040108F01FFACDE9AB
:1038B0000801149800890590FDF702F8CDE906018A
:1038C000DDE90823FCF71BFFCDE90C011798006A1E
:1038D0000990FDF754F8CDE90A01DDE90C23FCF766
:1038E00067FECDE90E01FDF731F880B2139017980D
:1038F0008069BC490E90FCF793FD0F90FDF712F81C
:1039000080B212901798C08A0190FCF761FD0146C1
:1039100002904FF08540FCF70DFE0390FDF72FF865
:10392000CDE9040108F0E2F9CDE908011498008915
:103930000590FCF7C5FFCDE90601DDE90823FCF79A
:10394000DEFECDE90C011798006A0990FDF717F823
:10395000CDE90A01DDE90C23FCF72AFECDE90E01D1
:10396000FCF7F4FF80B21190179880699E490E9081
:10397000FCF756FD0F90FCF7D5FF80B2109011A90F
:103980000EC904F07FFA7EE0FFE71798C08A019025
:10399000FCF71EFD014602904FF08540FCF7CAFD82
:1039A0000390FCF7ECFFCDE9040108F09FF9CDE9A5
:1039B0000801149800890590FCF782FFCDE9060103
:1039C000DDE90823FCF79BFECDE90C011798006A9E
:1039D0000990FCF7D4FFCDE90A01DDE90C23FCF7DF
:1039E000E7FDCDE90E01FCF7B1FF80B21390179807
:1039F00080697E490E90FCF713FD0F90FCF792FF53
:103A000080B212901798C08A0190FCF7E1FC014641
:103A100002904FF08540FCF78DFD0390FCF7AFFF5F
:103A2000CDE9040108F062F9CDE908011498008994
:103A30000590FCF745FFCDE90601DDE90823FCF719
:103A40005EFECDE90C011798006A0990FCF797FF1C
:103A5000CDE90A01DDE90C23FCF7AAFDCDE90E0151
:103A6000FCF774FF80B21190179880695E490E9040
:103A7000FCF7D6FC0F90FCF755FF80B2109011A90F
:103A80000EC904F0FFF9149801895948B0F90000F3
:103A9000401F814207DD149801895548B0F90000A4
:103AA000801D814200DB91E114980089C0EB001079
:103AB0000F90FCF784FC11901798006A01460F9054
:103AC0004C48FCF7ADFC10901199FCF7A9FC129042
:103AD0001798806A014611901298FCF7A1FC139088
:103AE000FCF707FF00B2159014980079062867D2FA
:103AF000DFE800F003661DB2E137159880B213903D
:103B00001698801C80B23CA21290139904F0ACFA73
:103B1000149800691390159880B2129016980B3083
:103B200080B21190DDE9121204F09EFA4CE1159872
:103B300080B213901698801C80B230A21290139914
:103B400004F092FA149800691390159880B21290BC
:103B500016980C3080B21190DDE9121204F084FA4C
:103B600032E1159880B213901698801C80B222A280
:103B70001290139904F078FA14980069139015982C
:103B800080B2129016980B3080B21190DDE91212BB
:103B900004F06AFA1498C0690078012834D1022030
:103BA00004F0EAF91598401C80B2139016986E3014
:103BB00080B213A21290139904F056FA012021E06A
:103BC000E7E00000BC81FF1FD481FF1FE080FF1FE2
:103BD000DC80FF1FF080FF1FEC80FF1FF880FF1FBD
:103BE000F480FF1F0000FE420000FA420000FC4289
:103BF000D280FF1F000060412D0000002B0000005C
:103C00002A00000004F0B8F91598093880B2139022
:103C100016986C3080B20B231A461290139904F058
:103C200021F914980089F749B1F90010884212D19E
:103C3000022004F0A1F915980A3880B21390169862
:103C40006B3080B20C231A461290139904F0FAF8E4
:103C5000012004F091F9B7E0159880B213901698FE
:103C6000801C80B2AFF270021290139904F0FCF93C
:103C7000149800691390159880B2129016980B3022
:103C800080B21190DDE9121204F0EEF91498C069C7
:103C90000078012801D1DCA000E0DCA01390159889
:103CA00080B212901698683080B21190DDE912123D
:103CB00004F0DAF988E0159880B213901698801C09
:103CC00080B2AFF2CC021290139904F0CDF914989F
:103CD00000691390159880B2129016980B3080B23C
:103CE0001190DDE9121204F0BFF91498006A00681F
:103CF000C7491290FCF78AFE02D21698603001E0A4
:103D00001698583080B21390012000901498006AE1
:103D100000681290159880B2022311900146DDE9E7
:103D2000122004F05BF914980089B649B1F900102B
:103D300088422DD1B748007850B3022004F01CF916
:103D40001498006A006800211190FCF75FFE01D210
:103D5000302000E0202013901498006A00680021B1
:103D60001190FCF753FE02D21698483001E01698E5
:103D7000583080B2129015980A3880B20B231190F7
:103D80000146DDE9120204F05DF8012004F0F4F8C8
:103D90001AE0159880B213901698801C80B2AFF28A
:103DA000A8121290139904F05FF914980069139007
:103DB000159880B2129016980B3080B21190DDE900
:103DC000121204F051F900BF00BF00BF1498006840
:103DD0001490149801891798C08A814207DA1498C0
:103DE00090F824101798007D81423FF443AD0220E3
:103DF00004F0C2F8179880690F90874801680F98FF
:103E0000FCF70EFB85491090FCF70AFB1190FCF7BC
:103E100089FD80B214901798006A1090804801685C
:103E20001098FCF7FDFA1190FCF77CFD80B213901E
:103E3000179880691190FCF775FD80B212900020F0
:103E40001123009012A807C804F02CF8012004F0F8
:103E500093F81798006A4FF085410F90FCF7E0FA4D
:103E60001090FCF75FFD80B21490179880696D493F
:103E70000F90FCF7D5FA1090FCF754FD80B2139028
:103E80001798006A1090FCF74DFD80B212901798B9
:103E9000806964490F90FCF7C3FA1090FCF742FD6B
:103EA00080B2119012A90EC903F0ECFF1798C08AD6
:103EB0000990FCF78DFA01460A904FF08540FCF717
:103EC00039FB0B90FCF75BFDCDE90C0107F00EFF11
:103ED000CDE90E01FCF73AFD80B214901798806985
:103EE00051490F90FCF79CFA1090FCF71BFD80B233
:103EF00013901798006A0F904C4801680F98FCF7D0
:103F00008FFA1090FCF70EFD80B21290179880691E
:103F100047490F90FCF784FA1090FCF703FD80B23C
:103F2000119012A90EC903F08DFF4248B0F90000AC
:103F3000062865D2DFE800F003048AE6FCFBB9E15D
:103F40003048B0F90000042807DB1798C06A3A49E6
:103F50001490FCF7B7FA1799C8622A48008810B97C
:103F600000211798C162354935480068FCF7AAFA64
:103F70002B4908602348B0F90000042806DA2E49CE
:103F80002F480068FCF74CFA2D4908601D4800884E
:103F900010B900202A49086018980069139003F0AE
:103FA000CFFF08301490FCF713FA264908601798E1
:103FB000C08A0990FCF70CFA01460A904FF0854040
:103FC000FCF7B8FA0B90FCF7DAFCCDE90C0107F02E
:103FD0008DFECDE910010B48B0F90000FCF7FDF9AA
:103FE000CDE90E01DDE91023FCF789FBCDE91201D3
:103FF000FCF7F0FC1449086000200E49088059E1E4
:1040000057E10000D280FF1F4F6E00004F66660030
:104010000000C842D780FF1FEC80FF1F0000A040B7
:10402000DC80FF1F0000FC4200004040F480FF1FC6
:104030000000FA42D480FF1F000070410000B4412C
:10404000E080FF1FF080FF1FF880FF1F00219B48CA
:104050000068FCF7DBFC0AD19948B0F90000404247
:10406000C0EB00101490FCF7AAF91799C8629549A3
:1040700092480068FCF7D4F99349086093498F4847
:104080000068FCF71FFA8D49086000218B48006822
:10409000FCF7BCFC02D80020884908601898006929
:1040A000139003F04DFF08301490FCF791F9884904
:1040B00008601798C08A0990FCF78AF901460A90AF
:1040C0004FF08540FCF736FA0B90FCF758FCCDE931
:1040D0000C0107F00BFECDE910017948B0F90000A2
:1040E000FCF77BF9CDE90E01DDE91023FCF707FBB6
:1040F000CDE91201FCF76EFC764908600020764994
:104100000880D7E000211798C16174491798816130
:1041100073486D4908606A48B0F90000C1171490EF
:1041200000EB917081101498A0EB810001E07AE01F
:1041300060E0C0EB00101390FCF741F95F490860A4
:1041400018980069139003F0FBFE08301490FCF7F8
:104150003FF95F4908604FF0854062490860179851
:10416000C08A401C402191FBF0F05549B1F9001084
:1041700048431490FCF723F9564908605048B0F9B9
:104180000000C117149000EB917081101498A0EBFF
:104190008100401E20B34A48B0F90000C0F1010080
:1041A0001290FCF70CF914901798C06A47491290C6
:1041B000FCF7C0F913901499FCF728FC08D1179864
:1041C000C06A42491490FCF77DF91799C86207E06C
:1041D0001798C06A44491490FCF774F91799C8629B
:1041E0003748008810B900211798C16204203A4965
:1041F00008805FE0552217991C311798183000F09D
:1042000083F928B93948007840F0FF003749087031
:1042100036480078FF2805D1002134480170052078
:104220002D49088046E02648B0F90000C1171490D7
:1042300000EB917081101498A0EB8100C0EB00108E
:104240001390FCF7BCF81D4908601898006913909A
:1042500003F076FE08301490FCF7BAF81C490860A9
:104260001798C08A0990FCF7B3F801460A904FF0FE
:104270008540FCF75FF90B90FCF781FBCDE90C0161
:1042800007F034FDCDE910010D48B0F90000FCF74E
:10429000A4F8CDE90E01DDE91023FCF730FACDE9F1
:1042A0001201FCF797FB0B49086000200A490880BF
:1042B00000E000BF00BF19B000BD0000E080FF1F9C
:1042C000D280FF1F0000B441DC80FF1F000070415E
:1042D000F080FF1FF880FF1FD480FF1F0000C8423E
:1042E0000000C042F480FF1F00007042D680FF1F14
:1042F0000146074A48681268101A0A68904204D3B7
:10430000034800684860012070470020FCE7000077
:10431000AC80FF1F2DE9F04104460F460D480068B0
:1043200048B902220CA12046A36C98470021056BD6
:104330000846A8470BE0022207A12046A36C984735
:10434000066B04480068057D00212846B047002020
:10435000BDE8F081C880FF1F457869740000000047
:10436000704700002DE9F04103F0DEFDC70003F0C7
:10437000E1FD07FB00F503F0D1FD044600262F48C0
:10438000007806280FDB00200BE0014600EBD1721D
:104390005210A0EB42021AB9215C01F055012154E0
:1043A000401CA842F1DB254800780D280FDB0020D7
:1043B0000BE0014600EBD1725210A0EB42021AB1A1
:1043C000215C01F0AA012154401CA842F1DB1B48EA
:1043D000007811280DDB002009E0014600EBD172C6
:1043E0005210A0EB42020AB900212154401CA842FD
:1043F000F3DB1248007814280DDB002009E00146A9
:1044000000EBD1725210A0EB42020AB100212154FC
:10441000401CA842F3DB09480078401C074908709B
:1044200008460078152802DD01260020087016B91C
:104430000120BDE8F0810020FBE700005881FF1F4C
:104440002DE9F05F04460E46154631682068FCF7FA
:10445000DDFA02D10020BDE8F09F31682068FCF74A
:1044600031F88246FCF78BFA21F000410746FCF751
:10447000B1FA81464FF07E514846FCF7C7FA02D8A0
:104480003068206018E01C494846FCF7C9FA03D29E
:1044900005EB450085B20FE018494846FCF7C0FA25
:1044A00004D24FF6FF7000EA450505E0144948467E
:1044B000FCF7B6FA00D2ADB231682068FCF7A6FA74
:1044C00015D02846FBF784FF83460E49FCF700F819
:1044D000804621683068FBF7F5FF82464146FCF7CD
:1044E00029F807462168FBF79BFF206001E00020C8
:1044F000B1E70120AFE700000000A04100007041DB
:104500000000A040CDCCCC3D2DE9F05F04460D4627
:10451000164629682068FCF779FA02D10020BDE828
:10452000F09F29682068FBF7CDFF8246FCF727FA49
:1045300021F000410746FCF74DFA81464FF07E51CD
:104540004846FCF763FA02D8286820602BE0174938
:104550004846FCF75BFA0ED23046FBF739FF82463D
:104560004946FBF7B5FF80461149FBF7B1FF074607
:10457000FCF7D8F986B20A2E00DA0A263046FBF795
:1045800027FF83460A49FBF7A3FF80462168286876
:10459000FBF798FF82464146FBF7CCFF07462168B0
:1045A000FBF73EFF20600120B9E70000000020413A
:1045B000CDCCCC3D2DE9F04704460D461646296882
:1045C0002068FCF723FA02D10020BDE8F0872968B3
:1045D0002068FBF777FF8146FCF7D1F921F0004115
:1045E00007464FF080420F4BFCF7DCF902D22868F7
:1045F000206014E03046FBF7EBFE82460A49FBF7E9
:1046000099FF804621682868FBF75CFF8146414698
:10461000FBF790FF07462168FBF702FF20600120AF
:10462000D3E700003333C33F0000204110B52648D4
:10463000FFF75EFE98B303F0FDFB244800680079A5
:1046400018B123480069007830B1224801681F483A
:104650000068FFF7B7F820E01C48006800790128DF
:104660000AD11A480068006C30B91A480168174826
:104670000068FEF71BFF10E014480068007901286D
:104680000BD112480068006C38B110480068026C09
:10469000104801680D480068904703F05BFC0B4828
:1046A0000068006B18B109490968086B8047074822
:1046B0000068806B20B105490968886B804701E07C
:1046C000FEF776FD10BD00003081FF1FC480FF1F84
:1046D000BC81FF1FCC80FF1F2DE9F84FE1A1012015
:1046E000FCF7A4FC0546E2A10020FCF79FFC044671
:1046F000E2A10020FCF79AFC0746E2A10020FCF7AB
:1047000095FC0646E3A10020FCF790FC8046E4A15E
:104710000020FCF78BFCD0F834A0E448D047814659
:104720000222D4A12846AB6C984794F814A000212B
:10473000D0F830B05046D847C06A0090DC480099A5
:1047400088470222D0A12846AB6C9847006B0090A6
:1047500096F814B000215846009A9047D0F82CA043
:10476000D448D047D44B0122D4A12846D5F848C01C
:10477000E047D0F82CA0D248D047D24B0122D2A19A
:104780002846D5F848C0E047D0F82CA0D048D047FC
:10479000D04B0122D0A12846D5F848C0E047D0F838
:1047A0002CA0D048D0470222CFA12846AB6C984716
:1047B00098F814A00021D0F830B05046D847C06A0D
:1047C0000090CA4800998847C94B0122C9A12846D0
:1047D000D5F848C0E047D0F82CA0C748D0470222FF
:1047E000C6A12846AB6C984799F814A00021D0F8D0
:1047F00030B05046D847C06A0090BF4800998847FB
:10480000C04B0122C0A12846D5F848C0E047D0F8E7
:104810002CA0BF48D047002296A12046A36C984701
:104820000222BCA12046A36C984797F814A000214F
:10483000D0F830B05046D847B9480090B94B032261
:10484000B9A12046D4F848C0E047BB480090BB4817
:1048500043690322BAA12046D4F848C0E047BB48C8
:104860000090BB4B0422BBA12046D4F848C0E047CF
:10487000BB480090BB4B0322BBA12046D4F848C0E4
:10488000E04700200090BB4B0322BBA12046D4F898
:1048900048C0E04700200090BB4B0322BBA120464C
:1048A000D4F848C0E047BC480090BC48D0F8D030AD
:1048B0000422BBA12046D4F848C0E047BB4B0122EC
:1048C000BBA12046D4F848C0E0470222BAA1204646
:1048D000A36C984795F814A00021D0F830B050464A
:1048E000D847002268A13046B36C9847002000905A
:1048F000B34B0322B3A13046D6F848C0E0470022AC
:10490000B3A13046B36C984700200090B44B04220A
:10491000B4A13046D6F848C0E04700200090B34B21
:104920000422B3A13046D6F848C0E04700200090EA
:10493000B14B0422B1A13046D6F848C0E047002070
:104940000090B14B0422B1A13046D6F848C0E047F0
:1049500000200090B04B0422B0A13046D6F848C0E9
:10496000E04700200090AF4B0422AFA13046D6F8BC
:1049700048C0E047022290A13046B36C984795F8B2
:1049800014A00121D0F830B05046D847002261A1D0
:104990003846BB6C984700200090A54B0422A5A187
:1049A0003846D7F848C0E04700200090A34B0422C7
:1049B000A3A13846D7F848C0E04700200090A24B9A
:1049C0000422A2A13846D7F848C0E04702227AA1C3
:1049D0003846BB6C984794F814A00121D0F830B049
:1049E0005046D84700229BA14046D8F84830984707
:1049F0009C4800909C4B04229CA14046D8F848C09B
:104A0000E047984800909B4B04229BA14046D8F871
:104A100048C0E047934800909A4B04229AA1404630
:104A2000D8F848C0E047022263A14046D8F8483091
:104A3000984795F814A00521D0F830B05046D847D3
:104A400093A14846FFF766FC002007F0D1FB8246A1
:104A5000514690A006F044F9E18A93A006F040F98F
:104A6000BDE8F88F706167654D61696E00000000F8
:104A70007061676553657474696E6700706167651E
:104A80005049440070616765416E696D6174696F7A
:104A90006E00000070616765575332383132000094
:104AA0007061676546696C657300000061430000D2
:104AB00050040100500601007128000055534200C7
:104AC000500501002D2700004779726F000000009B
:104AD000D004010001240000426C7565746F6F748E
:104AE00068000000D005010052474200D0080100D4
:104AF000692800003F3F3F00D00901004D79466919
:104B00006C6573004526000041626F7574000000FB
:104B10005009010050494420456469746F720000D7
:104B2000D57D00006281FF1F496E76657273654313
:104B30006F6C6F7200000000A1250000BC81FF1F98
:104B400046696C7053637265656E0000057E0000F7
:104B50009C81FF1F4C696768744C6576656C00002A
:104B6000D52300006381FF1F42656570456E616259
:104B70006C6500004C80FF1F554153525436325033
:104B800072696E74660000006481FF1F5061676582
:104B9000324C697374000000E9230000D481FF1FC8
:104BA000566F6C756D65204374726C00C1250000F2
:104BB00053617665416C6C004578697400000000B3
:104BC0006081FF1F536D6F6F7468416E696D0000E7
:104BD0002D506C7353657453706565642D2D000002
:104BE0006C81FF1F4672655F780000006881FF1FBF
:104BF0004672655F790000007081FF1F4672655F35
:104C000077696474680000007481FF1F536C6964E5
:104C10006261725F790000007C81FF1F6C697374B0
:104C20005F7900007881FF1F69636F6E5F78000015
:104C30008C81FF1F5049445F4B7000009081FF1F23
:104C40005049445F4B6900009481FF1F5049445F05
:104C50004B64000057533238313252474253657427
:104C600000000000E12800008081FF1F536574529E
:104C7000656400008481FF1F536574477265656E2B
:104C8000000000008881FF1F536574426C75650049
:104C9000313A00006D616C6C6F6320757365643A26
:104CA00025640D0A000000006974656D4D61783A55
:104CB00025640D0A0000000010B53D4800783D490C
:104CC00008703D4800783D49087000203849087058
:104CD000394908703A480068007D3A49B1F9001036
:104CE000884202D136480068B8B93748006834496C
:104CF000086004E0324800680068314908603048C4
:104D00000068007D2F49B1F900108842F2D12C488B
:104D10000068017D2DA005F0E3FF2F4800680089A1
:104D20002E49B1F9001088420BD12B48006890F849
:104D300024002449B1F90010884202D126480068B5
:104D4000C0B91F48006880682349086004E0224811
:104D500000680068204908601F48006800891F49F2
:104D6000B1F900108842F2D11B48006801891CA0EB
:104D700005F0B6FF1E480078B8B103F05BF816489E
:104D80000068806A20B114490968886A804702E097
:104D900000201749087007480078022802D1002037
:104DA0001349087003F0D6F801E0FFF73FFC10BD8F
:104DB0000480FF1FD880FF1F0580FF1FD980FF1FC1
:104DC000C480FF1FD080FF1FB480FF1F7061676524
:104DD00069643A25640D0A00CC80FF1FD280FF1F52
:104DE0006974656D6C69643A25640D0A0000000001
:104DF0001581FF1F02480068401C01490860704788
:104E0000AC80FF1F7047704770477047704770470E
:104E100070477047704770477047704770477047DA
:104E200070477047704770477047704770477047CA
:104E30007047704770B5044600260CB9F61E4BE06B
:104E400000BF2088B0F5007F00DA03E0CD2123A069
:104E5000FDF738F900BF2088400900EB4000202111
:104E600001EB4000B4F9021088420AD820884009BA
:104E700000EB4000252101EB4000B4F9021088420C
:104E800006D2B4F90200202802D36FF0020623E014
:104E900060881A49042212FB00152868C0F3080034
:104EA00040F2FF11884208D120882860B4F902102E
:104EB000134A606842F821000EE020882968C1F397
:104EC0000801884206D1B4F902100D4A606842F820
:104ED000210001E06FF00106304670BD6472697612
:104EE00065725C7372635C686333325F6C6C5F69BC
:104EF0006E74657272757074732E63005C10054079
:104F00000083FF1F10B5034908688047BFF34F8F28
:104F100010BD00000083FF1F10B50349486880479B
:104F2000BFF34F8F10BD00000083FF1F10B5034972
:104F300088688047BFF34F8F10BD00000083FF1FBC
:104F400010B50349C8688047BFF34F8F10BD0000FC
:104F50000083FF1F10B5034908698047BFF34F8FD7
:104F600010BD00000083FF1F10B50349486980474A
:104F7000BFF34F8F10BD00000083FF1F10B5034922
:104F800088698047BFF34F8F10BD00000083FF1F6B
:104F900010B50349C8698047BFF34F8F10BD0000AB
:104FA0000083FF1F10B50349086A8047BFF34F8F86
:104FB00010BD00000083FF1F10B50349486A8047F9
:104FC000BFF34F8F10BD00000083FF1F10B50349D2
:104FD000886A8047BFF34F8F10BD00000083FF1F1A
:104FE00010B50349C86A8047BFF34F8F10BD00005A
:104FF0000083FF1F10B50349086B8047BFF34F8F35
:1050000010BD00000083FF1F10B50349486B8047A7
:10501000BFF34F8F10BD00000083FF1F10B5034981
:10502000886B8047BFF34F8F10BD00000083FF1FC8
:1050300010B50349C86B8047BFF34F8F10BD000008
:105040000083FF1F10B50349086C8047BFF34F8FE3
:1050500010BD00000083FF1F10B50349486C804756
:10506000BFF34F8F10BD00000083FF1F10B5034931
:10507000886C8047BFF34F8F10BD00000083FF1F77
:1050800010B50349C86C8047BFF34F8F10BD0000B7
:105090000083FF1F10B50349086D8047BFF34F8F92
:1050A00010BD00000083FF1F10B50349486D804705
:1050B000BFF34F8F10BD00000083FF1F10B50349E1
:1050C000886D8047BFF34F8F10BD00000083FF1F26
:1050D00010B50349C86D8047BFF34F8F10BD000066
:1050E0000083FF1F10B50349086E8047BFF34F8F41
:1050F00010BD00000083FF1F10B50349486E8047B4
:10510000BFF34F8F10BD00000083FF1F10B5034990
:10511000886E8047BFF34F8F10BD00000083FF1FD4
:1051200010B50349C86E8047BFF34F8F10BD000014
:105130000083FF1F10B50349086F8047BFF34F8FEF
:1051400010BD00000083FF1F10B50349486F804762
:10515000BFF34F8F10BD00000083FF1F10B5034940
:10516000886F8047BFF34F8F10BD00000083FF1F83
:1051700010B50349C86F8047BFF34F8F10BD0000C3
:105180000083FF1F10B50349D1F880008047BFF3AB
:105190004F8F10BD0083FF1F10B50349D1F8840065
:1051A0008047BFF34F8F10BD0083FF1F10B5034929
:1051B000D1F888008047BFF34F8F10BD0083FF1FD9
:1051C00010B50349D1F88C008047BFF34F8F10BD55
:1051D0000083FF1F10B50349D1F890008047BFF34B
:1051E0004F8F10BD0083FF1F10B50349D1F8940005
:1051F0008047BFF34F8F10BD0083FF1F10B50349D9
:10520000D1F898008047BFF34F8F10BD0083FF1F78
:1052100010B50349D1F89C008047BFF34F8F10BDF4
:105220000083FF1F10B50349D1F8A0008047BFF3EA
:105230004F8F10BD0083FF1F10B50349D1F8A400A4
:105240008047BFF34F8F10BD0083FF1F10B5034988
:10525000D1F8A8008047BFF34F8F10BD0083FF1F18
:1052600010B50349D1F8AC008047BFF34F8F10BD94
:105270000083FF1F10B50349D1F8B0008047BFF38A
:105280004F8F10BD0083FF1F10B50349D1F8B40044
:105290008047BFF34F8F10BD0083FF1F10B5034938
:1052A000D1F8B8008047BFF34F8F10BD0083FF1FB8
:1052B00010B50349D1F8BC008047BFF34F8F10BD34
:1052C0000083FF1F10B50349D1F8C0008047BFF32A
:1052D0004F8F10BD0083FF1F10B50349D1F8C400E4
:1052E0008047BFF34F8F10BD0083FF1F10B50349E8
:1052F000D1F8C8008047BFF34F8F10BD0083FF1F58
:1053000010B50349D1F8CC008047BFF34F8F10BDD3
:105310000083FF1F10B50349D1F8D0008047BFF3C9
:105320004F8F10BD0083FF1F10B50349D1F8D40083
:105330008047BFF34F8F10BD0083FF1F10B5034997
:10534000D1F8D8008047BFF34F8F10BD0083FF1FF7
:1053500010B50349D1F8DC008047BFF34F8F10BD73
:105360000083FF1F10B50349D1F8E0008047BFF369
:105370004F8F10BD0083FF1F10B50349D1F8E40023
:105380008047BFF34F8F10BD0083FF1F10B5034947
:10539000D1F8E8008047BFF34F8F10BD0083FF1F97
:1053A00010B50349D1F8EC008047BFF34F8F10BD13
:1053B0000083FF1F10B50349D1F8F0008047BFF309
:1053C0004F8F10BD0083FF1F10B50349D1F8F400C3
:1053D0008047BFF34F8F10BD0083FF1F10B50349F7
:1053E000D1F8F8008047BFF34F8F10BD0083FF1F37
:1053F00010B50349D1F8FC008047BFF34F8F10BDB3
:105400000083FF1F10B50349D1F800018047BFF3A7
:105410004F8F10BD0083FF1F10B50349D1F8040161
:105420008047BFF34F8F10BD0083FF1F10B50349A6
:10543000D1F808018047BFF34F8F10BD0083FF1FD5
:1054400010B50349D1F80C018047BFF34F8F10BD51
:105450000083FF1F10B50349D1F810018047BFF347
:105460004F8F10BD0083FF1F10B50349D1F8140101
:105470008047BFF34F8F10BD0083FF1F10B5034956
:10548000D1F818018047BFF34F8F10BD0083FF1F75
:1054900010B50349D1F81C018047BFF34F8F10BDF1
:1054A0000083FF1F10B50349D1F820018047BFF3E7
:1054B0004F8F10BD0083FF1F10B50349D1F82401A1
:1054C0008047BFF34F8F10BD0083FF1F10B5034906
:1054D000D1F828018047BFF34F8F10BD0083FF1F15
:1054E00010B50349D1F82C018047BFF34F8F10BD91
:1054F0000083FF1F10B50349D1F830018047BFF387
:105500004F8F10BD0083FF1F10B50349D1F8340140
:105510008047BFF34F8F10BD0083FF1F10B50349B5
:10552000D1F838018047BFF34F8F10BD0083FF1FB4
:1055300010B50349D1F83C018047BFF34F8F10BD30
:105540000083FF1F10B50349D1F840018047BFF326
:105550004F8F10BD0083FF1F10B50349D1F84401E0
:105560008047BFF34F8F10BD0083FF1F10B5034965
:10557000D1F848018047BFF34F8F10BD0083FF1F54
:1055800010B50349D1F84C018047BFF34F8F10BDD0
:105590000083FF1F10B50349D1F850018047BFF3C6
:1055A0004F8F10BD0083FF1F10B50349D1F8540180
:1055B0008047BFF34F8F10BD0083FF1F10B5034915
:1055C000D1F858018047BFF34F8F10BD0083FF1FF4
:1055D00010B50349D1F85C018047BFF34F8F10BD70
:1055E0000083FF1F10B50349D1F860018047BFF366
:1055F0004F8F10BD0083FF1F10B50349D1F8640120
:105600008047BFF34F8F10BD0083FF1F10B50349C4
:10561000D1F868018047BFF34F8F10BD0083FF1F93
:1056200010B50349D1F86C018047BFF34F8F10BD0F
:105630000083FF1F10B50349D1F870018047BFF305
:105640004F8F10BD0083FF1F10B50349D1F87401BF
:105650008047BFF34F8F10BD0083FF1F10B5034974
:10566000D1F878018047BFF34F8F10BD0083FF1F33
:1056700010B50349D1F87C018047BFF34F8F10BDAF
:105680000083FF1F10B50349D1F880018047BFF3A5
:105690004F8F10BD0083FF1F10B50349D1F884015F
:1056A0008047BFF34F8F10BD0083FF1F10B5034924
:1056B000D1F888018047BFF34F8F10BD0083FF1FD3
:1056C00010B50349D1F88C018047BFF34F8F10BD4F
:1056D0000083FF1F10B50349D1F890018047BFF345
:1056E0004F8F10BD0083FF1F10B50349D1F89401FF
:1056F0008047BFF34F8F10BD0083FF1F10B50349D4
:10570000D1F898018047BFF34F8F10BD0083FF1F72
:1057100010B50349D1F89C018047BFF34F8F10BDEE
:105720000083FF1F10B50349D1F8A0018047BFF3E4
:105730004F8F10BD0083FF1F10B50349D1F8A4019E
:105740008047BFF34F8F10BD0083FF1F10B5034983
:10575000D1F8A8018047BFF34F8F10BD0083FF1F12
:1057600010B50349D1F8AC018047BFF34F8F10BD8E
:105770000083FF1F10B50349D1F8B0018047BFF384
:105780004F8F10BD0083FF1F10B50349D1F8B4013E
:105790008047BFF34F8F10BD0083FF1F10B5034933
:1057A000D1F8B8018047BFF34F8F10BD0083FF1FB2
:1057B00010B50349D1F8BC018047BFF34F8F10BD2E
:1057C0000083FF1F10B50349D1F8C0018047BFF324
:1057D0004F8F10BD0083FF1F10B50349D1F8C401DE
:1057E0008047BFF34F8F10BD0083FF1F10B50349E3
:1057F000D1F8C8018047BFF34F8F10BD0083FF1F52
:1058000010B50349D1F8CC018047BFF34F8F10BDCD
:105810000083FF1F10B50349D1F8D0018047BFF3C3
:105820004F8F10BD0083FF1F10B50349D1F8D4017D
:105830008047BFF34F8F10BD0083FF1F10B5034992
:10584000D1F8D8018047BFF34F8F10BD0083FF1FF1
:1058500010B50349D1F8DC018047BFF34F8F10BD6D
:105860000083FF1F10B50349D1F8E0018047BFF363
:105870004F8F10BD0083FF1F10B50349D1F8E4011D
:105880008047BFF34F8F10BD0083FF1F10B5034942
:10589000D1F8E8018047BFF34F8F10BD0083FF1F91
:1058A00010B50349D1F8EC018047BFF34F8F10BD0D
:1058B0000083FF1F10B50349D1F8F0018047BFF303
:1058C0004F8F10BD0083FF1F10B50349D1F8F401BD
:1058D0008047BFF34F8F10BD0083FF1F10B50349F2
:1058E000D1F8F8018047BFF34F8F10BD0083FF1F31
:1058F00010B50349D1F8FC018047BFF34F8F10BDAD
:105900000083FF1F10B55248046852480068012800
:1059100004D104F0010008B1FCF7AAFC4D48001DB9
:105920000068012804D104F0020008B1FCF7A1FCD2
:10593000484808300068012804D104F0040008B188
:10594000FCF798FC43480C300068012804D104F0AF
:10595000080008B1FCF78FFC3E48103000680128B1
:1059600004D104F0100008B1FCF786FC394814306B
:105970000068012804D104F0200008B1FCF77DFC88
:10598000344818300068012804D104F0400008B100
:10599000FCF774FC2F481C300068012804D104F087
:1059A000800008B1FCF76BFC2A4820300068012811
:1059B00004D104F4807008B1FCF762FC254824305F
:1059C0000068012804D104F4007008B1FCF759FC08
:1059D000204828300068012804D104F4806008B110
:1059E000FCF750FC1B482C300068012804D104F45B
:1059F000006008B1FCF747FC164830300068012809
:105A000004D104F4805008B1FCF73EFC1148343056
:105A10000068012804D104F4005008B1FCF735FCFB
:105A20000C4838300068012804D104F4804008B1E3
:105A3000FCF72CFC07483C300068012804D104F432
:105A4000004008B1FCF723FCBFF34F8F10BD0000EE
:105A50005C120540800AA24270B5FE480468FE4808
:105A6000D0F8B00B01282BD1FC48006840B9FC48A5
:105A70000068012804D104F0010008B1FCF78CFB98
:105A8000F6484030006848B9F548403000680128C1
:105A900004D104F4807008B1FCF776FBF14840684B
:105AA00000F00116EF48C1684FF0011020EA01052F
:105AB00006EA050020B104F4803008B1FCF768FB69
:105AC000E948006B01282DD1E448001D006848B961
:105AD000E348001D0068012804D104F0020008B169
