:020000040800F2
:1000000008E20020DD540008190200081B02000865
:100010001F02000823020008270200080000000059
:100020000000000000000000000000002B0200089B
:100030002D020008000000002F0200083102000815
:10004000F7540008F7540008F7540008F754000864
:10005000F7540008F7540008F7540008F754000854
:10006000F7540008F7540008F7540008F754000844
:10007000F7540008F7540008F7540008F754000834
:10008000F7540008F7540008F7540008F754000824
:10009000F7540008F7540008F7540008F754000814
:1000A000F7540008F7540008F7540008F754000804
:1000B000F7540008F7540008FF130008F75400082D
:1000C000F7540008F7540008F7540008F7540008E4
:1000D000F75400083F540008F7540008F75400088C
:1000E000F7540008F7540008F7540008F7540008C4
:1000F000F7540008F7540008F7540008F7540008B4
:10010000F7540008F7540008F7540008F7540008A3
:10011000F7540008F7540008F7540008F754000893
:10012000F7540008F7540008F7540008F754000883
:10013000F7540008F7540008F7540008F754000873
:10014000F7540008F7540008F754000841850108E7
:10015000F7540008F7540008F75400089D520008AF
:10016000F7540008F7540008F7540008F754000843
:10017000F7540008F7540008F7540008F754000833
:10018000F7540008F7540008DFF80CD018F09AFE76
:10019000004800479D01000808E200204FF4A060DD
:1001A00005F0AEF9542004F06DFF4FF4E13005F096
:1001B00016F84FF4E13005F0CFF8092142F2CF00F4
:1001C00001F0D8F801F004FB00F0EAFD00F038F986
:1001D00000F059FF00F0DFFF0D4801F044F86820FF
:1001E00000F060FC002007F046FD0BF02BF80FF04C
:1001F00069F80EF0D4FB0FF0A5F90649012000F0D4
:10020000DDFC00F01AFD01E00DF0B4F9FCE70000A0
:1002100016A9010801000500704700BFFEE700BFF6
:10022000FEE700BFFEE700BFFEE77047704770477C
:10023000704700000CB500200190009075480068E0
:1002400040F480307349086000BF7248006800F4D1
:10025000003000900198401C0190009818B9019856
:10026000B0F5A04FF1D16B48006800F4003010B138
:100270000120009001E0002000900098012844D166
:1002800064484030006840F0805062494031086066
:100290006148006840F440405F4908605D480830AC
:1002A00000685C4908310860084600680860084634
:1002B000006840F4805008605848091F0860081F13
:1002C000006840F08070091F086000BF5148006856
:1002D00000F000700028F9D040F202705049086028
:1002E0004C480830006820F003004A490831086093
:1002F0000846006840F00200086000BF454808302A
:10030000006800F00C000828F8D10CBD10B5454875
:10031000006840F47000434908603E48006840F0BF
:1003200001003C49086000203A490831086039481A
:1003300000683D490840374908603C48091D08608D
:10034000081F006820F48020091F08600020314940
:100350000C310860FFF76EFF4FF0006031498039C3
:10036000086010BD70B50020002202230024022185
:10037000284D08352D6805F00C0020B1042806D062
:10038000082834D107E02A4D2A4E356033E02A4D43
:10039000284E35602FE01F4D2D1D2D68C5F380546C
:1003A0001C4D2D1D2D6805F03F0154B1224DB5FBAC
:1003B000F1F5184E361D3668C6F3881605FB06F2B1
:1003C00009E01B4DB5FBF1F5124E361D3668C6F33C
:1003D000881605FB06F20F4D2D1D2D68C5F301454E
:1003E0006D1C6B00B2FBF3F5124E356003E0104D4F
:1003F000104E356000BF00BF064D08352D68C5F3AF
:1004000003150E4E705D0B4D2D68C540094E3560CD
:1004100070BD0000003802400070004019544107D0
:10042000003C024088ED00E0FFFFF6FE10300024A3
:100430000024F4000800002040787D010C0000201A
:100440001CB50121042005F0EFFB4FF40050009093
:1004500001208DF8040000208DF8060003208DF89F
:10046000050001208DF807006946044805F03EF9B3
:100470004FF40051014805F0B5F91CBD00080240D9
:1004800010B5044600BF0221A84807F081F90028F2
:10049000F9D02146A54807F032F900BF0121A34851
:1004A00007F076F90028F9D0A04807F025F9C0B286
:1004B00010BD00B587B00121022005F0B5FB012178
:1004C000880305F0FAFB4FF46040059002208DF898
:1004D000180000208DF81A0003208DF81900012063
:1004E0008DF81B0005A9924805F000F905220D21A1
:1004F0008F4805F086F905220E218D4805F081F917
:1005000005220F218A4805F07CF90121880305F0B6
:1005100029FC00214FF4804005F024FC0020ADF8B8
:1005200000004FF48270ADF802000020ADF8040026
:100530000220ADF806000120ADF808004002ADF839
:100540000A003820ADF80C000020ADF80E0007209E
:10055000ADF810006946754806F056FF0121734852
:1005600007F04CF8FF20FFF78BFF07B000BD10B578
:1005700004466E4800884FF6C77108406B490880F2
:1005800008460088204308800121684807F036F8B3
:1005900010BD10B5044600BF0221644807F0F8F80A
:1005A0000028F9D02146614807F0A9F810BD10B520
:1005B00000BF01215D4807F0EBF80028F9D05B4847
:1005C00007F09AF8C0B210BD00B587B00121084607
:1005D00005F02AFB0121080305F080FB02208DF8BD
:1005E000040000208DF80600E020009000208DF827
:1005F000070003208DF8050069464E4805F076F89F
:1006000001208DF8040000208DF806004FF4004012
:10061000009000208DF8070003208DF80500694642
:10062000444805F063F805221146424805F0E9F810
:10063000052206213F4805F0E4F8052207213D4840
:1006400005F0DFF83820ADF814000020ADF81000F8
:10065000ADF80E000720ADF818000020ADF80C0032
:10066000ADF80800ADF816004FF48270ADF80A003E
:100670004FF40070ADF8120002A92F4806F0C4FE36
:1006800001212D4806F0BAFF07B000BD10B50446A1
:100690004FF40041274805F0A7F800BF0221264883
:1006A00007F076F80028F9D02146234807F027F80C
:1006B000012004F001FD4FF400411E4805F092F8BE
:1006C00010BD10B5044600BF02211B4807F060F8BA
:1006D0000028F9D02146184807F011F810BD10B5D0
:1006E00000BF0121144807F053F80028F9D0124840
:1006F00007F002F8C0B210BD10B5044600BF0221D9
:100700000D4807F045F80028F9D021460A4806F0C0
:10071000F6FF00BF0121084807F03AF80028F9D099
:10072000054806F0E9FFC0B210BD000000380040E7
:1007300000040240000002400030014010B50024D7
:100740000020D14908609020FFF79AFE0020FFF7B3
:1007500097FE0020FFF794FE0020FFF791FEFF2098
:10076000FFF78EFE44EA0024FF20FFF789FE0443D2
:100770000120C649C1F8B002204610BD1CB50121B8
:10078000022005F051FA4FF48050009001208DF8BE
:10079000040000208DF8060003208DF805000120DC
:1007A0008DF807006946BA4804F0A0FF0120B64959
:1007B0000860FFF77EFE0020FFF7D9FEFFF7BEFFBF
:1007C000B44908801CBD10B500240020AE49086063
:1007D0000520FFF755FEFF20FFF752FE04460120DB
:1007E000AA49C1F8B002204610BD10B50446002049
:1007F000A54908600120FFF743FE2046FFF740FEB1
:100800000120A249C1F8B00210BD10B500209E49D8
:1008100008600620FFF734FE01209C49C1F8B002B1
:1008200010BD10B50020984908600420FFF728FE8D
:1008300001209649C1F8B00210BD2DE9F0410646ED
:100840000C4617460020904908600320FFF718FE69
:10085000C4F30740FFF714FEC4F30720FFF710FEB0
:10086000E0B2FFF70DFE002505E0FF20FFF708FED0
:100870007055681C85B2BD42F7DB012082490860D3
:10088000BDE8F08110B500BFFFF79DFF00F001004B
:100890000028F9D110BD2DE9F04106460C46174657
:1008A000FFF7B3FF0020784908600220FFF7E8FD5A
:1008B000C4F30740FFF7E4FDC4F30720FFF7E0FDB2
:1008C000E0B2FFF7DDFD002504E0705DFFF7D8FD25
:1008D000681C85B2BD42F8DB01206B490860FFF758
:1008E000D1FFBDE8F0812DE9F04107460E461446E0
:1008F000F0B2C0F58075AC4200DC254612E02A4615
:1009000031463846FFF7C7FFAC4200D10BE02F4419
:100910002E44601B84B2B4F5807F02DD4FF48075F5
:1009200000E02546EBE700BFBDE8F08110B50446C6
:10093000214659A018F0B6FB2403FFF766FFFFF726
:10094000A1FF0020504908602020FFF799FDC4F363
:100950000740FFF795FDC4F30720FFF791FDE0B2D4
:10096000FFF78EFD01204949C1F8B002FFF78AFF69
:1009700010BD2DE9F05F81460F461646DFF820B125
:100980004FEA1738C7F30B0ACAF58054A64200DCB9
:10099000344644E04FEA08314FF480525846FFF79E
:1009A0004CFF002508E00AEB05001BF80000FF28BB
:1009B00000D003E0681C85B2A542F4DB00BFA5426D
:1009C00016DA4046FFF7B2FF002507E019F80500E8
:1009D00005EB0A010BF80100681C85B2A542F5DBA6
:1009E0004FEA08314FF480525846FFF77CFF04E08D
:1009F000224639464846FFF776FFA64200D10FE06F
:100A000008F101084FF0000AA1442744301B86B2C8
:100A1000B6F5805F02DD4FF4805400E03446B9E75C
:100A200000BFBDE8F09F10B5FFF7EFFEFFF72AFF0C
:100A3000002015490860C720FFF722FD0120134957
:100A4000C1F8B002FFF71EFF10BD10B500200E491F
:100A50000860B920FFF714FD01200C49C1F8B0026D
:100A6000032004F029FB10BD10B5002006490860E2
:100A7000AB20FFF705FD01200449C1F8B0020320B7
:100A800004F01AFB10BD0000B082404200804042DA
:100A9000000402401C00002066653A25780D0A001B
:100AA000A404002010B59AB004460121084605F0C0
:100AB000BBF80121082005F000F90121480505F0E7
:100AC000B3F802208DF8640000208DF86600042041
:100AD000189003208DF8650018A9AC4804F006FEB4
:100AE00002221146A94804F08CFEA94805F0EEFD4B
:100AF00015A805F0CCFE0020ADF85C00ADF856005E
:100B00001694ADF854008DF85E0015A9A04805F0C4
:100B10008AFE01219E4806F000FB10A806F03CF872
:100B20006020ADF840000020ADF84C000120ADF889
:100B300042000020129010A9954805F08FFF08216F
:100B4000934806F0A8F80021914805F0F5FE01222F
:100B5000D1028F4806F038FB8E4805F0E3FB01A870
:100B600005F0ABFC18200590C005019040200490D2
:100B700000200C9003200D908748039000200E90D9
:100B80004FF4805009908010079000200A90804810
:100B90003C30029000200F904FF4805008900020CD
:100BA00006904FF480300B9001A97A4805F05CFC68
:100BB0000021784805F092FC1AB010BD70B50246CD
:100BC0000B46002116E0002010E003FA00F404F4C4
:100BD00000040CB1462400E0232401EB410500EBA6
:100BE000C5056D4E46F82540441CE0B21828ECDBE4
:100BF0004C1CE1B29142E6DB70BD70B502460B467B
:100C0000002117E0002011E053F82140844004F453
:100C100000040CB1462400E0232401EB410500EB65
:100C2000C5055D4E46F82540441CE0B21828EBDBB4
:100C30004C1CE1B29142E5DB70BD10B54A2155482C
:100C400005F06DFC0121534805F048FC0121504896
:100C500005F072FE00BF51494E4805F09CFC00288B
:100C6000F9D04E494B4805F0B2FC0021494805F047
:100C700035FC0021464805F05FFE10BD10B5044666
:100C80004FF47F412046FFF799FFFFF7D6FF10BDD5
:100C900010B504464FF47F012046FFF78FFFFFF7A2
:100CA000CCFF10BD10B50446FF212046FFF786FF9C
:100CB000FFF7C3FF10BD70B50546002425B1012D17
:100CC00023D0022D5FD141E000240BE0002040EA58
:100CD00004214020FFF772FFFFF7AFFF0A2004F066
:100CE00033FAA41CFE2CF1DBFE240BE0002040EACA
:100CF00004214020FFF762FFFFF79FFF0A2004F066
:100D000023FAA41E002CF1DC3DE000240BE00020BF
:100D100040EA04414020FFF751FFFFF78EFF0A2011
:100D200004F012FAA41CFE2CF1DBFE240BE00020E0
:100D300040EA04414020FFF741FFFFF77EFF0A2011
:100D400004F002FAA41E002CF1DC1CE0002409E0EF
:100D500021464020FFF732FFFFF76FFF0A2004F023
:100D6000F3F9A41CFE2CF3DBFE2409E0214640200D
:100D7000FFF724FFFFF761FF0A2004F0E5F9A41E46
:100D8000002CF3DC00BF00BF70BD0000000002407B
:100D9000000C004010600240A4140020200000104D
:100DA00000B589B00121022004F03EFF012102209C
:100DB00004F083FF02208DF8200000208DF822002F
:100DC0003020079000208DF8230003208DF82100AB
:100DD00007A9654804F08AFC02220421624804F055
:100DE00010FD02220521604804F00BFD0020ADF843
:100DF0001800ADF812004FF6FF7005900020ADF816
:100E000010008DF81A0004A9584805F00CFD01A83F
:100E100006F017F90F20ADF80C0001A9534806F0B1
:100E2000D9F800231A460121504806F070FA4FF411
:100E300000414E4805F040FD01214C4805F07CFD85
:100E400009B000BD10B50024484805F039FDA0F5F3
:100E5000004004B24FF40041444805F02DFD204607
:100E600010BD10B50024FFF7EDFF44B20CB900200F
:100E700010BD002C05DD3E48007820443C49087038
:100E800005E03C480078614208443A490870384817
:100E90000078022809DB00203549087035490870C0
:100EA000354800F0E0F90120E2E7324800780228F6
:100EB00007DA2F48007801280DD12E480078012844
:100EC00009D100202A4908702A4908702A4800F0F0
:100ED000CAF90220CCE70020CAE710B50220274952
:100EE0000870254800F0BFF910BD10B50120234956
:100EF0000870214800F0B7F910BD10B50024FFF7C5
:100F0000A1FF44B204B910BD002C05DD1C480078D7
:100F100020441B49087005E01A48007861420844E3
:100F20001849087016480078022807DB0020144989
:100F3000087014490870FFF7D8FF12E011480078D4
:100F4000022807DA0E48007801280AD10D480078F7
:100F5000012806D100200A4908700A490870FFF7E5
:100F6000BCFF00BFCFE700000004024000040040C7
:100F70001E0000201F0000200EA90108050000200F
:100F8000200000202100002070B505460E4642F2E8
:100F9000107403E0601E84B204B905E031462846AF
:100FA00006F0E6FD0128F5D100BF70BD70B504461E
:100FB0000D460121574806F0E3FC57495548FFF715
:100FC000E3FF00227821534806F0F2FC53495148D0
:100FD000FFF7DAFF21464F4806F06EFD4F49891EA4
:100FE0004C48FFF7D1FF29464A4806F065FD4B49BA
:100FF000891C4848FFF7C8FF0121464806F0CCFC91
:1010000070BD10B5044621460020FFF7CFFF10BD8C
:1010100010B5044621464020FFF7C8FF10BD10B5AB
:10102000044614B9A620FFF7ECFF012C02D1A7203B
:10103000FFF7E7FF10BD10B504462CB9C820FFF735
:10104000E0FFA120FFF7DDFF012C05D1C020FFF755
:10105000D8FFA020FFF7D5FF10BD10B58D20FFF7FA
:10106000D0FF1420FFF7CDFFAF20FFF7CAFF10BD60
:1010700010B58D20FFF7C5FF1020FFF7C2FFAE208F
:10108000FFF7BFFF10BD00B587B00121022004F0BB
:10109000CBFD0121480504F010FE05A804F06EFB0D
:1010A000C020059002208DF8180001208DF81A004C
:1010B00003208DF8190005A9194804F017FB042234
:1010C0000621174804F09DFB04220721144804F070
:1010D00098FB01A806F022FC4FF48060ADF80E00EA
:1010E0000001ADF810000F4801904BF6FF70ADF80D
:1010F0000A000020ADF808007720ADF80C0001A927
:10110000044806F09EFB0121024806F016FC07B0D9
:1011100000BD0000005400400100030082000700F1
:101120000004024040420F0010B588B0044601217F
:10113000080404F0D3FD0020ADF81C00ADF8160043
:10114000601E06905320ADF8140000208DF81E009C
:1011500005A9814805F067FB684605F01DFD602084
:10116000ADF800000020ADF80C000120ADF8020041
:10117000204604EBD071491002916946764805F08B
:1011800020FC0121744805F0C8FF0021724805F0D9
:10119000D3FB08B010BD1CB50121084604F044FD86
:1011A00002208DF8040000208DF806000820009031
:1011B00000208DF8070003208DF805006946674878
:1011C00004F094FA03221146644804F01AFB4FF429
:1011D0007A70FFF7A9FF0821604804F005FB0120A1
:1011E0005F49087000204870142008721CBD014639
:1011F00009B900207047DFED5B0AB0EE600A00EE2F
:10120000901AF8EE600A9FED581AC1EE201AB0EE5F
:10121000610AFCEEC00A10EE900A80B2EAE710B54F
:101220002DED028B04469FED4F0AB0EE408A4A48EE
:10123000008800F0010018B90121474805F07CFB47
:1012400000EE104AB8EE400ADFED470A80EE801A41
:10125000B0EE418ABCEEC80A10EE100A3E49C862E0
:10126000BDEC028B10BD70B5054600213A4805F073
:1012700063FB3E480560002401E0601C84B23B48EB
:10128000006810F824003D28F7D1354884800020FC
:101290003349C880012048700020488070BD10B5D7
:1012A0002F48407800284AD02D480078002846D0A2
:1012B0002B48C0882A498988884234DC28484088DD
:1012C000401E27494880084640884FF6FF718842F3
:1012D00040DB2349C988254A126812F82110244AA4
:1012E00032F81100FFF783FF1B49C8620846C06A45
:1012F00080B21B49097AC1F1640190FBF1F01649F3
:1013000088631748C0881949096801EB8000408844
:10131000134948800846C088401CC88001210E48F7
:1013200005F00AFB16E000210B4805F005FB002044
:101330000B4948700821094804F056FA0AE00021D8
:10134000054805F0F9FA00200549487008210348CE
:1013500004F04AFA10BD00000040014000000240C5
:10136000CC15002000000000002474492400002057
:1013700092A801087FB505460C460121042004F01F
:101380009CFC0020ADF80C00ADF806000295ADF80D
:1013900004408DF80E0001A93E4805F044FA0121F1
:1013A0003C4805F0F5FE012211463A4805F0DCFE06
:1013B0004FF4A06004F0A4F81E208DF80000012076
:1013C0008DF8030002208DF801008DF802006846B8
:1013D00004F09BF801212F4805F0AEFA7FBD10B54F
:1013E00000242D48006817F0D7F917F0CBF94FF417
:1013F0007A7190FBF1F201FB1204204610BD10B58A
:101400000121244805F0C7FE012841D101212148CE
:1014100005F0D2FE20480068401C1F4908600AF011
:10142000A6FE1E480078401CC0B21C490870052862
:1014300004DB00F0A7F9002018490870184800786C
:10144000401CC0B2164908700A2804DBFFF755FD9E
:1014500000201349087013480088401C80B21149CD
:1014600008800A2804DBFFF71AFF00200D490880D6
:101470000D480088401C80B20B49088041F2883139
:10148000884205DB012009490870002006490880D0
:1014900010BD0000000800402C000020300000209B
:1014A00035000020360000203200002034000020EB
:1014B0002DE9F04104460E4617461D462C212046D4
:1014C00017F079F9A07820F0F0008030A070A660C5
:1014D0002846A1688847E17860F3C711E170E07899
:1014E00067F38610E0702571BDE8F08100F10C0310
:1014F00043F821207047014688780009704770B58D
:1015000004462079A16888470546E07800F0070086
:10151000002802DD2088401C2080E078B5EBD01F39
:1015200013D0E078C008401CE17860F3C501E17099
:10153000C1F3C20003280CDBE07865F3C710E0704C
:10154000E07820F03800E07003E0E07820F0380028
:10155000E070E07800F00700062876D2DFE800F0BF
:101560000326529DE7C6E078C0F38010E178B0EB27
:10157000D11F15D1A07820F0F000A070E06810B164
:101580002046E168884700202080A07820F00F00E6
:10159000401CA070E07820F00700401CE07004E0E0
:1015A000A07820F0F0008030A070C5E0E078C0F3B3
:1015B0008010E178B0EBD11F11D0A07820F0F000BE
:1015C0001030A070206910B12046216988470020A2
:1015D0002080E07820F00700801CE07011E0208877
:1015E00064280EDDA07820F0F0005030A070206A52
:1015F00010B12046216A8847E07820F00700401D9E
:10160000E07099E0E078C0F38010E178B0EBD11F92
:101610001CD1A07820F0F000A070E06810B1204646
:10162000E1688847A078401CA17860F30301A170AD
:10163000606910B120466169884700202080E07809
:1016400020F00700C01CE07026E070E0208806282B
:1016500022DDA07800F00F0001280AD1A07820F048
:10166000F0003030A070A06990B12046A169884791
:101670000EE0A07800F00F00022809D1A07820F039
:10168000F0004030A070E06910B12046E169884761
:10169000E07820F00700E0704EE0E078C0F38010C2
:1016A000E178B0EBD11F19D0A07820F0F000103015
:1016B000A070206910B1204621698847208806283B
:1016C00007DA00202080E07820F00700801CE0701E
:1016D0000BE0E07820F00700E07006E020880628A4
:1016E00003DDE07820F00700E07025E0E078C0F34B
:1016F0008010E178B0EBD11F0AD1A07820F0F00083
:101700006030A070606A88B12046616A88470DE049
:10171000A07820F0F0001030A070206910B12046B1
:1017200021698847E07820F00700E07004E0E07865
:1017300020F00700E07000BF00BF70BD01461748F1
:10174000026805E08A4202D14FF0FF307047926A8A
:10175000002AF7D111480068886210480160002013
:10176000F4E702460D4808E00168914202D18B6A15
:101770000360704701F1280000BF01680029F3D120
:1017800000BFF6E710B50548046803E02046FFF700
:10179000B6FEA46A002CF9D110BD0000380000206C
:1017A00010B504460120424908704248FFF75BFD2E
:1017B00010BD10B5044602203D4908703E48FFF7B1
:1017C00052FD10BD10B504213C4803F0F1FF10BDDF
:1017D0001CB50121042004F027FA00208DF8040034
:1017E0000420009001208DF8070003208DF80500EB
:1017F0006946324803F07AFF00231A46AFF23B01F4
:101800002F48FFF755FEAFF2550205212C48FFF790
:101810006DFEAFF2730203212948FFF767FE2848E7
:10182000FFF78CFF1CBD10B50121244803F0C0FF59
:1018300010BD10B50221214803F0BAFF10BD10B54C
:10184000044620A017F02EFC2648FFF70CFD10BD23
:1018500010B5044624A017F025FC10BD0121294A2B
:101860001170704710B504460120114908701148E5
:10187000FFF7F9FC10BD10B5044623A017F012FCC9
:101880001848FFF7F0FC10BD10B5044626A017F06D
:1018900009FC10BD02211B4A1170704710B50446A7
:1018A0000220034908700448FFF7DDFC10BD00006A
:1018B0000400002016A901082EA901080008024012
:1018C000301600202D2D2D3E206B65793020707252
:1018D00065737320646F776E21203C2D2D2D0D0ACA
:1018E000000000000EA901082A2A2A3E206B657913
:1018F0003020707265737320757021203C2A2A2A6B
:101900000D0A0000050000202D2D2D3E206B65796D
:101910003120707265737320646F776E21203C2DC7
:101920002D2D0D0A000000002A2A2A3E206B657921
:101930003120707265737320757021203C2A2A2A29
:101940000D0A000038B50446F74890F82400C0B1ED
:1019500014B10220009001E000200090F24A1268C9
:10196000D17BF14A526810786B46012203F0D5F919
:1019700010B14FF0FF3038BD9DF80010EA484174B7
:1019800023E0E948807A10B94FF0FF30F3E724B143
:10199000E548407C08B10020EDE714B1012000903B
:1019A00001E000200090E04A1268D17BDE4A5268D4
:1019B00010786B46012203F0B0F910B14FF0FF3000
:1019C000D9E79DF80010D84841740020D3E738B516
:1019D00000241FE0D4480068C07AA04204D0D24856
:1019E0000068407DA04200D112E0CF4949680878E4
:1019F0006B460122214603F0CFF810B14FF0FF30C3
:101A000038BD9DF800202146C8A017F04BFB00BF51
:101A1000601CC4B2C44840680079A042DADC0020EF
:101A2000EEE770B504460D46BF480068C07AA04294
:101A300004D0BD480068407DA04202D14FF0FF3085
:101A400070BDB94840680079A04202DC4FF0FF3019
:101A5000F6E7B549496808782B460122214603F08C
:101A60009BF8EDE738B50446AF4890F82300A04254
:101A700001D1002038BD14B13020009001E00020D9
:101A80000090A948807C20B19DF8000040F0020041
:101A90000090A54890F8220020B19DF8000040F089
:101AA00080000090A04A1268117D9F4A5268107809
:101AB0006B46012203F031F910B14FF0FF30D9E746
:101AC000994880F823400020D4E738B5044604F054
:101AD000700010B10120009005E014B100200090CA
:101AE00001E040200090904A1268917C8E4A526832
:101AF00010786B46012203F010F920B100218A48CA
:101B00008172481E38BD9DF8000020F040018648D3
:101B100001730020009004F0400020B99DF80000FF
:101B200040F00400009004F0200020B99DF800006F
:101B300040F00200009004F0100020B99DF8000071
:101B400040F00100009004F0080020B99DF800006A
:101B500040F038000090744A1268D17C724A526892
:101B600010786B46012203F0D8F820B100216E48AE
:101B70008172481EC6E724B1082C02D00020FFF76E
:101B800071FF6948847200210175322003F0DCFA8C
:101B90000020B7E738B504466348807CA04201D1F5
:101BA000002038BD002C46D05F4A126811795E4A89
:101BB000526810786B46012202F0EEFF10B14FF030
:101BC000FF30EEE79DF8000020F020000090564A1C
:101BD00012681179544A526810786B46012203F05A
:101BE0009CF810B14FF0FF30DBE7032003F0ACFAB4
:101BF000022000904C4890F8220020B19DF800008F
:101C000040F080000090484890F8230020B19DF8F3
:101C1000000040F030000090434A1268117D424AB3
:101C2000526810786B46012203F077F8002851D0F3
:101C30004FF0FF30B5E73C4A126811793A4A5268D2
:101C400010786B46012202F0A7FF10B14FF0FF3071
:101C5000A7E73548807A00F0010028B19DF8000020
:101C600040F02000009004E09DF8000020F02000EB
:101C700000902D4A126811792B4A526810786B46F1
:101C8000012203F04AF810B14FF0FF3089E703203A
:101C900003F05AFA244890F8220010B180200090F6
:101CA00001E000200090204890F8230020B19DF82A
:101CB000000040F0300000901B4A1268117D1A4A63
:101CC000526810786B46012203F027F810B14FF0EC
:101CD000FF3066E714488474002062E708B51248B4
:101CE000807A10B94FF0FF3008BD002000900E4AF6
:101CF0001268D17B0C4A526810786B46012203F0BF
:101D00000CF810B14FF0FF30EEE7074A1268517936
:101D1000054A526810786B46012202F0FEFF68B156
:101D20004FF0FF30E0E700003C000020252335782D
:101D30003A20252335780D0A00000000F84A126881
:101D40001179F74A526810786B46012202F0E5FFDC
:101D500010B14FF0FF30C7E7F14890F82400002899
:101D600053D00C200090EE4A12681179EC4A526868
:101D700010786B46012202F0D0FF10B14FF0FF3017
:101D8000B2E7052003F0E0F9C0200090E448807A33
:101D900000F0010020B19DF8000040F0200000900C
:101DA000DF4A12681179DE4A526810786B460122C8
:101DB00002F0B3FF10B14FF0FF3095E7D848407CF8
:101DC00010B10220009001E000200090D44A126877
:101DD000D17BD34A526810786B46012202F09DFFF6
:101DE00010B14FF0FF307FE700200090CC4A12681E
:101DF0005179CB4A526810786B46012202F08DFF70
:101E0000002855D04FF0FF306EE704200090C44A00
:101E100012681179C24A526810786B46012202F0AA
:101E20007CFF10B14FF0FF305EE7BD48807C20B9E9
:101E3000BB48807A00F0010010B94020009001E01A
:101E400060200090B64A12681179B54A526810783D
:101E50006B46012202F061FF10B14FF0FF3043E703
:101E6000052003F071F9AE48407C10B101200090CC
:101E700001E000200090AA4A1268D17BA84A52686B
:101E800010786B46012202F048FF10B14FF0FF308E
:101E90002AE7A34A12685179A14A52681078A04BE8
:101EA0001033012202F039FF10B14FF0FF301BE771
:101EB000002019E770B50446002624F00104984874
:101EC00090F8240008B1002070BD9548807A10B9C0
:101ED0004FF0FF30F8E79248057C807A2040904927
:101EE00008740846007CA04202D04FF0FF3600E0A4
:101EF000002614B98A48007D18B10120FFF722FDA1
:101F000002E00020FFF71EFD3CB1FFF7E7FE20B125
:101F1000834805744FF0FF30D6E73046D4E738B534
:101F200004467F48807A10B94FF0FF3038BDBC2C92
:101F300002DB0120009015E0622C02DB0220009001
:101F400010E02A2C02DB032000900BE0142C02DBB3
:101F50000420009006E00A2C02DB0520009001E03E
:101F6000062000906E48C07A9DF80010884201D18A
:101F70000020DBE76A4A12689178694A5268107853
:101F80006B46012202F0C9FE10B14FF0FF30CDE7E1
:101F90009DF800106248C1720020C7E738B50446BA
:101FA000282C02DD4FF0FF3038BDDCB90020FFF7F0
:101FB00059FD00208DF8000007208DF80100584AD7
:101FC0001268917C564A526810786B46022202F0E1
:101FD000A4FE10B14FF0FF30E6E700215048017534
:101FE0000020E1E70120FFF73DFD20208DF80000F3
:101FF000012C06D100208DF801000520FFF78FFF8E
:1020000017E0052C06DC01208DF801000520FFF704
:1020100086FF0EE0142C06DC02208DF801000A2059
:10202000FFF77DFF05E003208DF801001420FFF786
:1020300076FF9DF80100072101EB8010C0B28DF8FA
:102040000100374A1268917C354A526810786B4615
:10205000022202F062FE10B14FF0FF30A4E7082127
:102060002F48817200210173012101750020FFF7C3
:1020700021FF002098E738B504462948807A10B936
:102080004FF0FF3038BD264890F8240010B14FF0D3
:10209000FF30F7E72248007D50B134B1282C04DC32
:1020A000E0B2FFF77BFF0020ECE70020FFF776FFB0
:1020B000042C01DA042404E0B4F57A7F01DD4FF446
:1020C0007A744FF47A7090FBF4F0401EC0B2009026
:1020D000134A12685178124A526810786B460122EE
:1020E00002F01BFE10B14FF0FF30CBE79DF800006F
:1020F000401C4FF47A7191FBF0F081B20848C18125
:102100000146C9894810FFF70AFF0020BAE738B531
:1021100004460348807A28B94FF0FF3038BD0000EC
:102120003C000020022C06D0042C07D0082C08D03C
:10213000102C0CD108E0002000900BE0082000904B
:1021400008E01020009005E01820009002E04FF019
:10215000FF30E3E700BFF748407A9DF80010B0EB8E
:10216000E10F01D10020D9E7F24A1268D179F14A92
:10217000526810786B46012202F0CFFD10B14FF08B
:10218000FF30CBE79DF80000C110EA484172002003
:10219000C4E738B50446E748807A10B94FF0FF30FD
:1021A00038BDFA2C09D0B4F5FA7F09D0B4F57A7F9E
:1021B00009D0B4F5FA6F0CD108E0002000900BE0D4
:1021C0000820009008E01020009005E01820009002
:1021D00002E04FF0FF30E3E700BFD648007A9DF8F9
:1021E0000010B0EBE10F01D10020D9E7D14A12680D
:1021F0009179D04A526810786B46012202F08DFD29
:1022000010B14FF0FF30CBE79DF80000C010C94976
:1022100008720020C4E71CB580208DF80000C54A74
:102220001268917CC34A526810786B46012202F012
:1022300074FD10B14FF0FF301CBD642002F084FF2C
:1022400000208DF80000BB4A1268917CB94A5268A0
:1022500010786B46012202F060FD10B14FF0FF30A4
:10226000EAE7B44A1268917DB24A526810786B4628
:10227000062202F091FC10B14FF0FF30DCE79DF830
:102280000500C007400F9DF8031001F0010140EA6E
:1022900041009DF8011001F0010140EA010494B1F0
:1022A000012C03D10121A348C17431E0022C03D1D8
:1022B0000021A048C1742BE021469FA016F0F2FE39
:1022C0004FF0FF30B8E79B4A1268D178994A5268BC
:1022D00010786B46012202F05FFC10B14FF0FF3026
:1022E000AAE79DF8000000F00F042CB99C4816F0F6
:1022F000D9FE4FF0FF309FE7042C06D199A016F0CD
:10230000D1FE01218B48C17402E000218948C174CB
:10231000FF2188488172FF2086490872FF21854885
:102320004172C1724FF6FF71C181FF210174817446
:102330000121017380F82210002180F823104175DB
:1023400001751630016041608160163880F82410F4
:1023500080F82510C1844FF4FA60FFF71AFF10B11E
:102360004FF0FF3068E70220FFF7D1FE10B14FF0C9
:10237000FF3061E72A20FFF7D2FD10B14FF0FF30A8
:102380005AE73220FFF777FE10B14FF0FF3053E7E6
:102390000020FFF78FFD10B14FF0FF304CE7002019
:1023A000FFF7F8FB10B14FF0FF3045E70020FFF7D3
:1023B0008CFB002040E770477CB504460D465D4825
:1023C000807A00F0700010B94FF0FF307CBD594AA0
:1023D0001268117B574A526810786B46062202F049
:1023E000DBFB10B14FF0FF30F0E79DF801009DF8E6
:1023F000001040EA012000B220809DF803009DF803
:10240000021040EA012000B260809DF805009DF8AE
:10241000041040EA012000B2A08015B12846FFF761
:10242000CAFF0020D2E77CB504460D464148807AB9
:1024300000F0080010B94FF0FF307CBD3D4A126833
:10244000517B3C4A526810786B46062202F0A4FB8E
:1024500010B14FF0FF30F0E79DF801009DF800103B
:1024600040EA012000B220809DF803009DF8021090
:1024700040EA012000B260809DF805009DF804103C
:1024800040EA012000B2A08015B12846FFF793FF73
:102490000020D2E7F8B506460C462648807A10B9E7
:1024A0004FF0FF30F8BD234A1268917B214A5268F1
:1024B00010786B46022202F06FFB10B14FF0FF3034
:1024C000F0E79DF801009DF8001040EA012005B2F8
:1024D00014B12046FFF76FFF16484068B0F90800B6
:1024E00000EE100AF8EEC00A00EE105AB8EEC00A6C
:1024F00070EE600A0F484068C08800EE100AB8EE1F
:10250000400A80EE801A9FED1F0A31EE000ADFEDCF
:102510001E0A20EE200ABDEEC00A86ED000A002049
:10252000C0E710B588B004461CB94FF0FF3008B0C2
:1025300010BD2BE03C000020556E737570706F72FB
:1025400074656420736F6674776172652070726F52
:1025500064756374207265762025642E0A0000007D
:1025600018B6030848616C662073656E73697469F8
:1025700076697479207061727420666F756E642E4E
:102580000A00000000000C4200008047206830B9BB
:10259000606820B9A06810B9002008B010BDF949E2
:1025A0004968087806AB0322114602F0F5FA10B12B
:1025B0004FF0FF30F1E79DF81800082101EB2010E3
:1025C00000F00F00ADF800009DF8190001EB20109D
:1025D00000F00F00ADF802009DF81A0001EB20108A
:1025E00000F00F00ADF8040020684100BDF90000C4
:1025F000403091FBF0F000B2ADF81000606841008F
:10260000BDF90200403091FBF0F000B2ADF81200CD
:10261000A0684100BDF90400403091FBF0F000B229
:10262000ADF81400D7494968087806AB0622114670
:1026300002F0B2FA10B14FF0FF30AEE79DF819008A
:102640009DF8181040EA012000B2ADF808009DF88E
:102650001B009DF81A1040EA012000B2ADF80A00F4
:102660009DF81D009DF81C1040EA012000B2ADF855
:102670000C00BDF81000BDF80810084400B2ADF819
:102680001000BDF81200BDF80A10084400B2ADF801
:102690001200BDF81400BDF80C10084400B2ADF8EB
:1026A0001400BDF81000000A8DF81800BDF81000E5
:1026B000C0B28DF81900BDF81200000A8DF81A009A
:1026C000BDF81200C0B28DF81B00BDF81400000A5E
:1026D0008DF81C00BDF81400C0B28DF81D00A9498A
:1026E0004968087806AB0622114602F016FB10B1C5
:1026F0004FF0FF3051E700204FE70146A148007A34
:1027000030B1012807D0022809D003280FD10AE0F0
:10271000FA2008800EE04FF4FA7008800AE04FF4C7
:102720007A70088006E04FF4FA60088002E000202A
:10273000088000BF00BF0020704701469148407AE2
:1027400030B1012807D0022808D003280CD108E0B6
:10275000022008700BE00420087008E008200870D0
:1027600005E01020087002E04FF0FF30704700BF16
:102770008448C07C18B108784006000E087000201C
:10278000F4E701467F48C07A082817D2DFE800F056
:102790001704070A0D101318BC20088013E06220EC
:1027A000088010E02A2008800DE0142008800AE04C
:1027B0000A20088007E00520088004E000BF00BF71
:1027C0000020088000BF00BF0020704701466D4810
:1027D00090F8240010B14FF0FF3070476948C0896D
:1027E00008800020F9E7014600200880401E70475D
:1027F00001464FF0FF30704701466248007A30B121
:10280000012809D002280CD0032814D10EE09FED36
:102810005E0A81ED000A11E09FED5C0A81ED000A7D
:102820000CE09FED5B0A81ED000A07E09FED590A7D
:1028300081ED000A02E04FF0FF30704700BF00203A
:10284000FBE701464F48407A30B1012808D0022802
:102850000AD0032810D10BE04FF4804008800EE02E
:1028600041F69C7008800AE04FF48050088006E032
:102870004FF40060088002E04FF0FF30704700BF67
:102880004048C07C10B10888401008800020F5E75F
:1028900001463C48007C08700020704701463948DA
:1028A000807A10B10120087001E00020087000203B
:1028B000704738B504463348807A10B94FF0FF307E
:1028C00038BD304A1268117C2E4A526810786B4627
:1028D000022202F061F910B14FF0FF30F0E79DF8ED
:1028E00001009DF8001040EA012000B22080002085
:1028F000E6E72DE9FE4F0746884692461D46DDF87D
:1029000030B0002600241F4890F8240010B1601E4B
:10291000BDE8FE8F002028701A48807A10B94FF069
:10292000FF30F5E71748007C10B94FF0FF30EFE7B4
:102930001448007C00F0400008B1B01CC6B2114839
:10294000007C00F0200008B1B01CC6B20D48007C2D
:1029500000F0100008B1B01CC6B20A48007C00F0BC
:10296000080008B1B01DC6B2064A1268917A054A3D
:10297000526810786B46022202F00EF960B14FF0F7
:10298000FF30C5E73C000020000003430000834205
:1029900033330342333383419DF801009DF8001027
:1029A00040EA0129B14501DA0020B1E7FA48406860
:1029B0004088B9EB600F17DDF74A1268517CF64A80
:1029C000526810786B46012202F0E6F810B14FF021
:1029D000FF309DE79DF8000000F0100020B1FFF7E8
:1029E0007DF96FF0010093E75046FFF7E4FCEA4AF7
:1029F0001268D17AE84A526810786B46324602F083
:102A0000CBF810B14FF0FF3082E799FBF6F0401E93
:102A10008BF8000000202870B4422AD0DE48007CE9
:102A200000F0080028B3601C1DF800001DF8041019
:102A300040EA012000B2A8F80000E01C1DF80010D8
:102A4000A01C1DF8000041EA002000B2A8F8020016
:102A5000601D1DF80010201D1DF8000041EA002037
:102A600000B2A8F80400287840F008002870A01DE3
:102A700084B2B44213D0C848007C00F0400070B16A
:102A8000601C1DF800001DF8041040EA012000B28F
:102A90003880287840F040002870A01C84B2B442EE
:102AA00013D0BD48007C00F0200070B1601C1DF800
:102AB00000001DF8041040EA012000B27880287858
:102AC00040F020002870A01C84B2B44213D0B24859
:102AD000007C00F0100070B1601C1DF800001DF8B3
:102AE000041040EA012000B2B880287840F01000BD
:102AF0002870A01C84B200200AE7F8B504460F46EF
:102B00001646A54890F8240010B94FF0FF30F8BDE4
:102B1000A148807A10B94FF0FF30F8E79E4A12685A
:102B2000917A9D4A526810786B46022202F034F87E
:102B300010B14FF0FF30EAE79DF801009DF800105A
:102B400040EA0125A54203DA00203070401EDEE78E
:102B5000914840684088B5EB600F17DD8E4A1268D7
:102B6000517C8D4A526810786B46012202F014F8AD
:102B700010B14FF0FF30CAE79DF8000000F01000E0
:102B800020B1FFF7ABF86FF00100C0E7E2B2824B73
:102B90001B68D97A804B5B6818783B4601F0FCFFD4
:102BA00010B14FF0FF30B2E795FBF4F0401E3070EB
:102BB0000020ACE70146784880F8221000207047DA
:102BC0007CB5054674494968087801AB04220D219B
:102BD00001F0E2FF08B107207CBD9DF80700C0F3BB
:102BE00001109DF8041001F0E00140EAE1008DF8C9
:102BF00000009DF80700C0F381009DF8051001F06A
:102C0000E00140EAE1008DF801009DF8070000F0C6
:102C100003009DF8061001F0E00140EAE1008DF8A4
:102C20000200002427E01DF8040030B99FED5B0A84
:102C300005EB840080ED000A1BE09FED590A05EBCF
:102C4000840080ED000A0BE005EB840090ED000AA3
:102C5000DFED540A20EE200A05EB840080ED000A27
:102C60001DF80400401EC0B20DF804000028EBD18E
:102C700000BF601CC4B2032CD5DB0020ACE7F0B56C
:102C80002DED028B83B006460F4600256846FFF700
:102C900097FF002447E056F8241057F82420881A9C
:102CA000002801DB014600E0414200EE101AB8EEB8
:102CB000C00ADFED3D0A80EE208A684600EB840002
:102CC00090ED000AB5EEC00AF1EE10FA18D0684691
:102CD00000EB8400D0ED000A88EE200AF7EE000A2F
:102CE00070EE608AB0EEE80A3048D0ED090AB4EE22
:102CF000E00AF1EE10FA15DD0120A040054311E0D5
:102D00002A4890ED070AB4EEC80AF1EE10FA06DC84
:102D100090ED080AB4EEC80AF1EE10FA02D20120D2
:102D2000A0400543641C032CB5DB284603B0BDEC72
:102D3000028BF0BDF0B52DED048B81B006460F4639
:102D400000251549496808786B4603220D2101F0DA
:102D500023FF20B1072001B0BDEC048BF0BD9DF82E
:102D6000000000F01F008DF800009DF8010000F049
:102D70001F008DF801009DF8020000F01F008DF883
:102D80000200002461E056F8241057F82420881A25
:102D900000280DDB01460CE03C0000200000000094
:102DA0007B14AE3E1D5A843F0000804774AA010880
:102DB000414200EE101AB8EEC00A5FED050A80EE3F
:102DC000208A1DF8040068B3FE4890ED000AB8EEB2
:102DD000400ADFEDFD0A80EE801AF0EE418A05E040
:102DE0009FEDFA0A28EE800AF0EE408A1DF80400F2
:102DF000401EC0B20DF804000028F1D188EE280A68
:102E0000F7EE000A30EE609AB0EEC90AED48D0ED58
:102E1000060AB4EEE00AF1EE10FA15DD0120A0403A
:102E2000054311E0E74890ED040AB4EEC80AF1EE5C
:102E300010FA06DC90ED050AB4EEC80AF1EE10FABD
:102E400002D20120A0400543641C032C9BDB2846D2
:102E500081E72DE9F04F87B005460C4691460120E9
:102E60008DF8100000208DF81100D94A1268917C6D
:102E7000D74A5268107804AB022201F04EFF20B10D
:102E80004FF0FF3007B0BDE8F08FC82002F05CF9CA
:102E900000208DF81000CE4A1268D17BCC4A5268CF
:102EA000107804AB012201F038FF10B14FF0FF3071
:102EB000E8E7C74A12685179C54A5268107804ABEE
:102EC000012201F02AFF10B14FF0FF30DAE7C04ACB
:102ED0001268917CBE4A5268107804AB012201F05E
:102EE0001CFF10B14FF0FF30CCE7B94A1268D17D1A
:102EF000B74A5268107804AB012201F00EFF10B1FE
:102F00004FF0FF30BEE7B24A12681179B04A5268FA
:102F1000107804AB012201F000FF10B14FF0FF3038
:102F2000B0E70C208DF81000A94A12681179A84A60
:102F30005268107804AB012201F0EFFE10B14FF09F
:102F4000FF309FE70F2002F0FFF8A148806A407A27
:102F50008DF810009E4A126891789D4A5268107848
:102F600004AB012201F0D9FE10B14FF0FF3089E728
:102F70009748806A007A8DF81000954A1268517857
:102F8000934A5268107804AB012201F0C6FE10B1DA
:102F90004FF0FF3076E7B9F1000F07D08C48806A18
:102FA000807A40F0E0008DF8100004E08848806AE4
:102FB000807A8DF81000864A12689179844A5268A6
:102FC000107804AB012201F0A8FE10B14FF0FF30E1
:102FD00058E7B9F1000F07D07D48806AC07A40F009
:102FE000E0008DF8100003E07648C07A8DF81000FC
:102FF000774A1268D179764A5268107804AB012278
:1030000001F08BFE10B14FF0FF303BE7B9F1000F3C
:1030100002D0C82002F098F840208DF810006C4AC9
:10302000126811796A4A5268107804AB012201F0E3
:1030300074FE10B14FF0FF3024E778208DF81000B7
:10304000634A12685179624A5268107804AB0122CF
:1030500001F063FE10B14FF0FF3013E75949888942
:1030600002F072F800208DF81000594A1268517968
:10307000574A5268107804AB012201F04EFE10B19D
:103080004FF0FF30FEE6524A1268917A504A526879
:10309000107804AB022201F07FFD10B14FF0FF3039
:1030A000F0E69DF811009DF8101040EA012B0C206D
:1030B0009BFBF0F0C6B20020A86068602860A060AA
:1030C00060602060824665E0414A1268D17A404AD9
:1030D0005268107804AB0C2201F05EFD10B14FF085
:1030E000FF30CFE69DF811009DF8101040EA012056
:1030F00000B2ADF808009DF813009DF8121040EAE8
:10310000012000B2ADF80A009DF815009DF81410DA
:1031100040EA012000B2ADF80C00BDF908102068AB
:1031200008442060BDF90A10606808446060BDF979
:103130000C10A0680844A0609DF817009DF81610B8
:1031400040EA012000B2ADF800009DF819009DF89A
:10315000181040EA012000B2ADF802009DF81B00F3
:103160009DF81A1040EA012000B2ADF80400BDF944
:103170000010286808442860BDF9021068680844F7
:103180006860BDF90410A8680844A8600AF101004D
:1031900000F0FF0AB24597DB0A48D0F800C0286863
:1031A000C117090441EA104107046246002338466A
:1031B00015F0B7FA32460023CDE9020115F0B1FA55
:1031C000286007E074AA010800B04C4554E3853F2D
:1031D0003C000020F848D0F800C06868C117090416
:1031E00041EA1041070462460023384615F099FA77
:1031F00032460023CDE9020115F093FA6860EE48EB
:10320000D0F800C0A868C117090441EA10410704BA
:1032100062460023384615F084FA32460023CDE991
:10322000020115F07EFAA860E348D0F804C02168D6
:10323000C817000440EA11480F04624600233846CC
:10324000414615F06EFA32460023CDE9020115F031
:1032500068FA2060D848D0F804C06068C117090433
:1032600041EA1041070462460023384615F059FA36
:1032700032460023CDE9020115F053FA6060CE48D2
:10328000D0F804C0A068C117090441EA104107043E
:1032900062460023384615F044FA32460023CDE951
:1032A000020115F03EFAA060A068002804DDA068C5
:1032B000A0F58030A06003E0A06800F58030A06039
:1032C0000020DFE538B50446BC4890F82400A04251
:1032D00001D1002038BD24B3B84890F8250010B9BA
:1032E0004FF0FF30F6E70020FEF72CFB0020FEF742
:1032F00051FCB249C88CFEF7BEFE00200090AF49D9
:10330000496808786B460122232101F006FD01215E
:10331000AA4880F824100120FEF714FBFEF7DEFC1B
:1033200013E00020FEF70EFBA448007C0090A349A8
:10333000496808786B460122232101F0EEFC002148
:103340009E4880F82410FEF7C9FC0020C2E72DE952
:10335000F04F8DB083460F4602200C90974890F8AE
:10336000240020B10020FFF7ADFF012600E0002679
:1033700003A8FFF7C2F905A8FFF7DFF901A8FFF7D7
:1033800000FA02A8FFF722FA8C4890F80AA004A8D5
:10339000FFF77EFA002407E0002239465846FFF77F
:1033A00058FD00B902E0641C022CF5DB00BF022CC2
:1033B00001D1002528E0002407E0012206A909A880
:1033C000FFF747FD00B902E0641C022CF5DB00BFEB
:1033D000022C01D1002517E006A93846FFF74FFC63
:1033E00000F0FF0809A95846FFF7A4FC00F0FF0908
:1033F0000025B9F1000F01D145F00105B8F1000F2A
:1034000001D145F0020500BFFF206C490872FF2181
:103410006A484172C1724FF6FF71C181FF2181720A
:10342000017401210173BDF80C00FEF7B2FE9DF896
:103430001400FEF76CFEBDF80400FEF770FDBDF849
:103440000800FEF718FE5046FEF73FFB9DF81000FF
:10345000FEF730FD16B10120FFF734FF28460DB00E
:10346000BDE8F08FF8B504460D46164616B94FF084
:10347000FF30F8BD5148807A10B94FF0FF30F8E7BF
:1034800020128DF80000E0B28DF801009DF80100D7
:1034900028444A4949684989884202DD4FF0FF3093
:1034A000E7E7464A1268117E444A526810786B4634
:1034B000022201F032FC10B14FF0FF30D9E7EAB23E
:1034C0003E4B1B68597D3D4B5B681878334601F0D5
:1034D00024FC10B14FF0FF30CBE70020C9E7F8B56E
:1034E00004460D46164616B94FF0FF30F8BD334876
:1034F000807A10B94FF0FF30F8E720128DF8000005
:10350000E0B28DF801009DF8010028442B4949687C
:103510004989884202DD4FF0FF30E7E7274A126809
:10352000117E264A526810786B46022201F0F5FBA4
:1035300010B14FF0FF30D9E7EAB2204B1B68597D3C
:103540001E4B5B681878334601F026FB10B14FF034
:10355000FF30CBE70020C9E72DE9F04385B00546F1
:103560000E4690469946154890F8250020B14FF038
:10357000FF3005B0BDE8F08316B94FF0FF30F8E733
:10358000002428E0281B102801DD102000E0281B63
:1035900087B2321939462046FFF764FF10B14FF069
:1035A000FF30E6E701AA39462046FFF798FF38B119
:1035B0004FF0FF30DDE7000074AA01083C00002056
:1035C00030193A4601A915F00FF910B16FF001005A
:1035D000CFE7E01984B2AC42D4DB4FEA28208DF863
:1035E000000008F0FF008DF80100F74A1268917E94
:1035F000F54A526810786B46022201F08EFB10B13A
:103600004FF0FF30B5E70121EF4880F82510A0F812
:1036100026900020ADE70146EB4890F824000870A2
:10362000002070474FF0FF30704702464FF0FF30E8
:10363000704701464FF0FF307047F8B505460F461A
:103640001446002C70D0B5F5FF5F01DDFF2605E0C4
:10365000202D01DA012601E0C5F3471607B901273D
:10366000282C02DD4FF0FF30F8BDD748407D28BB45
:10367000D54890F8240038B10020FFF723FE01213F
:10368000D14880F8201003E00021CF4880F82010B6
:10369000CD481630FFF731F8CB481830FFF74DF81A
:1036A000C9481A30FFF76DF8C7481C30FFF78EF88D
:1036B000C548817A81771F30FFF7EAF80020FEF7CE
:1036C00041F90020FEF76AFC00208DF80000BE4A98
:1036D00012689178BC4A526810786B46012201F05A
:1036E0001CFB10B14FF0FF30BEE740208DF800000A
:1036F000B54A1268D17BB44A526810786B460122F1
:1037000001F00BFB00B165E08DF800608DF80170F1
:10371000AD4A1268117AAC4A526810786B460222A0
:1037200001F0FBFA08B155E047E0052001F00CFD7F
:10373000A548407A072101EBC000C0B28DF8000017
:10374000A14A1268D179A04A526810786B460122CA
:1037500001F0E3FA00B13DE020208DF80000012CDB
:1037600003D100208DF801000EE0052C03DC0120C0
:103770008DF8010008E0142C03DC02208DF8010014
:1037800002E003208DF801009DF80100072101EB04
:103790008010C0B28DF801008B4A1268917C8A4A71
:1037A000526810786B46022201F0B7FA00B111E0BE
:1037B000012185484175002056E7834A16320021D1
:1037C00003E0505C00B105E0491C0C29F9D34FF02F
:1037D000FF3049E7FF207C490872FF217A48417297
:1037E000C1724FF6FF71C181FF2181720174012105
:1037F00001730146887FFEF768F97349C88AFEF7AE
:10380000C8FC7149087EFEF782FC6F49488BFEF7C1
:1038100086FB6D49888BFEF72EFC6B49C87FFEF74F
:1038200049FB694890F8200010B10120FFF74AFDDC
:10383000002165484175002016E710B588B002A93F
:1038400005A8FFF784FD0446032C41D101A8FEF72B
:10385000D3FF9DED050AB8EEC00ADDED010A20EEAA
:10386000200ABDEEC00A8DED050A9DED060AB8EEF0
:10387000C00ADDED010A20EE200ABDEEC00A8DED82
:10388000060A9DED070AB8EEC00ADDED010A20EE3A
:10389000200ABDEEC00A8DED070A05A800F07DFAEA
:1038A0006846FEF7CEFFBDF800100298484302902C
:1038B000BDF80010039848430390BDF80010049829
:1038C0004843049002A800F0FBFA002008B010BDA5
:1038D0000120FBE7014691F90020002A01DD0020CC
:1038E0001EE091F90020002A01DA042018E091F985
:1038F0000120002A01DD012012E091F90120002AB7
:1039000001DA05200CE091F90220002A01DD0220F5
:1039100006E091F90220002A01DA062000E00720E3
:10392000704710B504462046FFF7D4FF0346E01C5D
:10393000FFF7D0FF43EAC00083B2A01DFFF7CAFF24
:1039400043EA801083B2184610BD70B5002401F020
:1039500029FA1EA015F0A6FBFEF75DFC00286BD12E
:103960007820FEF7B2F8C4B21AA015F09BFB0CB198
:10397000012070BD7820FEF79DFAC4B216A015F0A4
:1039800091FB0CB10220F4E7C820FEF774FBC4B22F
:1039900012A015F087FB0CB10320EAE700F062F9F2
:1039A000C4B20FA015F07EFB0CB10420E1E70D4876
:1039B000FFF7B7FF054600F05FF9C4B20AA015F0A3
:1039C00071FB9CB10520D4E73C0000206969630DC0
:1039D0000A000000310D0A00320D0A00330D0A0002
:1039E000340D0A0068000020350D0A0040F2731003
:1039F00000F093FDC4B293A015F054FB0CB1062067
:103A0000B7E7C82000F0F2FAC4B28FA015F04AFB65
:103A10000CB10720ADE700248CA015F043FB0CB1DE
:103A20000820A6E70120FFF74DFCC4B288A015F0DE
:103A300039FB0CB109209CE700209AE770B52DED09
:103A40000C8B8EB004460D461646B7EE000AF0EE1B
:103A5000409A9FED800AB0EE408A9FED7E0AF0EE1C
:103A6000408A9FED7C0AB0EE409A07A808A90DABEA
:103A700003AACDE9001009A90BA800F0ADFE20B102
:103A800001200EB0BDEC0C8B70BDBDF8200000F421
:103A9000807000287ED09DED030AB8EEC00ADFEDED
:103AA0006E0A80EE201AF0EE419A9DED040AB8EEFF
:103AB000C00ADFED690A80EE201AB0EE418A9DED62
:103AC000050AB8EEC00ADFED640A80EE201AF0EEB7
:103AD000418A9DED060AB8EEC00ADFED5F0A80EE6E
:103AE000201AB0EE419AB8EE000A28EE000A20EE45
:103AF000090AF0EE000A69EEA00A00EEA80A10EE2C
:103B0000101A084615F052F841EC1C0BB0EE4C0AA6
:103B1000F0EE6C0A15F01CFBB0EE40BAF0EE60BAA5
:103B20009FED4E0B53EC102B51EC1B0B14F026FFAA
:103B300041EC1A0B15F066F82060B8EE000A28EE8A
:103B4000000A20EE080AF0EE000A68EEA00A00EE75
:103B5000E80AF7EE000A30EE200A10EE101A0846C6
:103B600015F024F841EC1C0BB0EE000A28EE800A98
:103B700020EE090AF0EE000A69EEA00A00EE880ABB
:103B800010EE101A084615F011F841EC1D0BB0EEBE
:103B90004C1A00E052E0F0EE6C1AB0EE4D0AF0EE76
:103BA0006D0A15F0F1FDB0EE40BAF0EE60BA9FED8F
:103BB0002B0B53EC102B51EC1B0B14F0DFFE41ECE4
:103BC0001A0B15F01FF8286029EEA90A08EE080A5A
:103BD00008EEE80A09EE490A10EE101A084614F039
:103BE000E5FF41EC1C0B28EE280A09EE890AF0EEED
:103BF000000A20EE200A10EE101A084614F0D6FF34
:103C000041EC1D0BB0EE4C1AF0EE6C1AB0EE4D0A02
:103C1000F0EE6D0A15F0B8FDB0EE40BAF0EE60BA05
:103C20009FED0E0B53EC102B51EC1B0B14F0A6FE6A
:103C300041EC1A0B14F0E6FF306001E0022020E7AF
:103C400000201EE7360D0A00370D0A00380D0A0065
:103C5000390D0A00000000000000804E66666666AE
:103C600066A64C4010B5C8234FF48062F74940F671
:103C7000F630FFF771FC10BD10B586B00446F4A015
:103C800000680390F3A000680290F3A00068019020
:103C9000F2A00068009004F0030003A9085C8DF80E
:103CA000140003A8C4F3C101405C8DF8150003A8FB
:103CB000C4F38111405C8DF8160004F0030002A9E2
:103CC000085C8DF8100002A8C4F3C101405C8DF8B7
:103CD000110002A8C4F38111405C8DF8120005AAFE
:103CE000032140F22640FFF7BDFB18B14FF0FF3033
:103CF00006B010BD04AA032140F22A40FFF7B2FB30
:103D000010B14FF0FF30F3E7019805900098049050
:103D100004F0040058B19DF8140040F001008DF843
:103D200014009DF8100040F001008DF8100004F020
:103D3000200058B19DF8150040F001008DF81500E5
:103D40009DF8110040F001008DF8110004F480701E
:103D500058B19DF8160040F001008DF816009DF84E
:103D6000120040F001008DF8120005AA03214FF463
:103D70008860FFF777FB10B14FF0FF30B8E704AA77
:103D8000032140F23140FFF76DFB10B14FF0FF30DF
:103D9000AEE7B34804810020AAE71FB50446B04847
:103DA000007A00F0030054F820000190AC48007A3B
:103DB00000F0040010B1019840420190A848007A38
:103DC000C0F3C10054F820000290A548007A00F02A
:103DD000200010B1029840420290A148007AC0F33E
:103DE000811054F8200003909D48008900F48070F1
:103DF00010B10398404203909A49019880FB010159
:103E0000800F40EA810001909649029880FB0110E2
:103E1000820042EA917002909249039880FB01105F
:103E2000820042EA917003900198000E8DF8000024
:103E30000198000C8DF801000198000A8DF802002D
:103E40000198C0B28DF803006A4604214FF47470E3
:103E5000FFF708FB18B14FF0FF3004B010BD029817
:103E6000000E8DF800000298000C8DF801000298F9
:103E7000000A8DF802000298C0B28DF803006A466D
:103E800004214FF47570FFF7EDFA10B14FF0FF30D9
:103E9000E3E70398000E8DF800000398000C8DF8FE
:103EA00001000398000A8DF802000398C0B28DF853
:103EB00003006A4604214FF47670FFF7D3FACCE78B
:103EC00070B588B0064601A8FEF7BBFCBDF804003B
:103ED0000021C90341EA5045C4036148007A00F05B
:103EE000030056F8200005905D48007A00F00400B9
:103EF00010B10598404205905948007AC0F3C100BE
:103F000056F8200006905648007A00F0200010B1C4
:103F10000698404206905248007AC0F3811056F845
:103F2000200007904E48008900F4807010B1079877
:103F3000404207900598C117A0FB042301FB043100
:103F400000FB0510810041EA927005900698C117A8
:103F5000A0FB042301FB043100FB0510810041EAB2
:103F6000927006900798C117A0FB042301FB04314F
:103F700000FB0510810041EA927007900598000E41
:103F80008DF808000598000C8DF809000598000AC6
:103F90008DF80A000598C0B28DF80B000698000E47
:103FA0008DF80C000698000C8DF80D000698000A9C
:103FB0008DF80E000698C0B28DF80F000798000E1D
:103FC0008DF810000798000C8DF811000798000A72
:103FD0008DF812000798C0B28DF8130002AA0C21C8
:103FE0004FF42570FFF73EFA08B070BD30B585B0CC
:103FF00004461DA207CA02AB07C3C82C03DD4FF05D
:10400000FF3005B030BDC82090FBF4F0401E85B2F3
:10401000280A8DF80000E8B28DF801006A460221F6
:1040200040F21620FFF71EFA10B14FF0FF30E8E71C
:1040300002AA0C2140F6C120FFF714FA10B14FF08C
:10404000FF30DEE7064884810020DAE79CAA0108F9
:104050004CCD6C000CC92C00365676002646660006
:104060005C16002009E3CA02FEF2ABC4AAF1DFDF4E
:10407000BBAFDFDF0146F948808908800020704728
:10408000F0B52DED028B83B006460F4606F0070013
:1040900010B1B7F5C86F05DD4FF0FF3003B0BDECD0
:1040A000028BF0BD00EE107AB8EE400ADFEDEC0AAC
:1040B00080EE208A01A8FEF740FB9DF8040002284C
:1040C00006D0042817D0082828D010284CD138E072
:1040D0009FEDE40A28EE000ABCEEC00A10EE100ABA
:1040E00084B29FEDE10A28EE000ABCEEC00A10EE91
:1040F000100A85B23BE09FEDDD0A28EE000ABCEE17
:10410000C00A10EE100A84B29FEDD90A28EE000A08
:10411000BCEEC00A10EE100A85B228E09FEDD50A69
:1041200028EE000ABCEEC00A10EE100A84B29FED21
:10413000D20A28EE000ABCEEC00A10EE100A85B2C0
:1041400015E09FEDCE0A28EE000ABCEEC00A10EE84
:10415000100A84B29FEDCA0A28EE000ABCEEC00A1B
:1041600010EE100A85B202E04FF0FF3096E700BF74
:1041700020128DF80800E0B28DF8090028128DF8A1
:104180000A00E8B28DF80B0006F00100A0B102AA07
:1041900002214FF4EA70FFF765F910B14FF0FF30DC
:1041A0007CE70DF10A0202214FF49270FFF75AF9F1
:1041B00010B14FF0FF3071E706F00200A0B102AA83
:1041C00002214FF4EC70FFF74DF910B14FF0FF30C2
:1041D00064E70DF10A0202214FF49470FFF742F9EF
:1041E00010B14FF0FF3059E706F00400A0B102AA69
:1041F00002214FF4EE70FFF735F910B14FF0FF30A8
:104200004CE70DF10A0202214FF49670FFF72AF9EC
:1042100010B14FF0FF3041E700203FE738B50446CA
:104220000020009004F0010020B19DF8000040F053
:104230003000009004F0020020B19DF8000040F032
:104240000C00009004F0040020B19DF8000040F044
:10425000030000906A4601214FF4A470FFF702F9B1
:1042600038BD38B50446012C01DA012402E0042CE3
:1042700000DD0424601EC0B200906A46012140F2B5
:104280004F10FFF7EFF838BD38B50446052094FB12
:10429000F0F085B228128DF80000E8B28DF8010028
:1042A0006A4602214FF4EF70FFF7DCF838BD38B5ED
:1042B0000446052094FBF0F085B228128DF800002A
:1042C000E8B28DF801006A4602214FF4ED70FFF765
:1042D000C9F838BDF8B505460E464FF47A7095FB1F
:1042E000F0F000FB06F4200E8DF80000200C8DF895
:1042F0000100200A8DF80200E0B28DF803006A4642
:1043000004214FF4AE70FFF7ADF8F8BD38B50446A0
:10431000052094FBF0F084B220128DF80000E0B28A
:104320008DF801006A4602214FF4AD70FFF79AF84C
:1043300038BD38B50446052094FBF0F084B2201255
:104340008DF80000E0B28DF801006A4602214FF4BA
:10435000AC70FFF787F838BD38B5044614B94FF094
:10436000FF3038BD6A4604214FF45870FFF7B7F8A4
:1043700010B14FF0FF30F4E79DF8000000069DF803
:10438000011040EA01409DF8021040EA01209DF82A
:104390000310084320600020E3E738B50446200EF0
:1043A0008DF80000200C8DF80100200A8DF8020025
:1043B000E0B28DF803006A4604214FF45870FFF70D
:1043C00051F838BD38B5044614B94FF0FF3038BD48
:1043D0006A4604214FF47170FFF781F810B14FF075
:1043E000FF30F4E79DF8000000069DF8011040EA58
:1043F00001409DF8021040EA01209DF80310084397
:1044000000EB8000800020600020E0E738B5044623
:104410001420B4FBF0F4200E8DF80000200C8DF871
:104420000100200A8DF80200E0B28DF803006A4610
:1044300004214FF47170FFF715F838BD38B5044604
:1044400004B320208DF8000028208DF801003020D2
:104450008DF8020038208DF8030018E05C1600206B
:10446000000048430000804600004046000000462F
:104470000000C045000080450000404500000045A8
:104480000000C044A3220421684614F08DF96A4656
:10449000042140F69E20FEF7E5FFFDF71FFC38BD26
:1044A00038B5044664B1C0208DF80000C2208DF8F4
:1044B0000100C4208DF80200C6208DF8030004E03E
:1044C0008B220421684614F06FF96A46042140F6F5
:1044D0009820FEF7C7FFFDF701FC38BD3EB5044646
:1044E0006CB1FDA1D1E900208968CDE900200291DD
:1044F0006A4609214FF49760FEF7B4FF3EBDF9A26A
:10450000D2E900109268CDE9010200916A460921C2
:104510004FF49760FEF7A6FFF0E73EB50446022091
:104520008DF80000CA208DF80100E3208DF802000C
:1045300009208DF803006A4604216820FEF792FFE7
:10454000A3208DF8000004F0400048B1C0208DF891
:104550000100C8208DF80200C2208DF8030006E09B
:10456000A3208DF801008DF802008DF8030004F4FB
:10457000C07048B1C4208DF80400CC208DF805002F
:10458000C6208DF8060006E0A3208DF804008DF803
:1045900005008DF80600A3208DF807008DF80800AF
:1045A0008DF809006A460A2140F6A720FEF75AFF57
:1045B00004F0030018B120208DF8000002E0D8209C
:1045C0008DF800006A46012140F6B620FEF74AFF4A
:1045D00004F0200018B10120FFF780FF02E0002066
:1045E000FFF77CFF04F4C07008B304F4807060B17E
:1045F000B2208DF800008B208DF80100B6208DF8D8
:1046000002009B208DF803000BE0B0208DF8000025
:1046100080208DF80100B4208DF8020090208DF8E4
:1046200003006A46042140F6A220FEF71BFF04F0B7
:10463000010020B3F8208DF800006A4601214FF4F4
:104640000B60FEF70FFFFA210720FFF719FD072087
:10465000FFF7E4FD0120FFF704FE6420FFF714FEDE
:104660004FF4FA70FFF723FEC821A148FFF732FE8E
:104670002820FFF74BFE0A20FFF75BFE08E0D8205A
:104680008DF800006A4601214FF40B60FEF7EAFE48
:1046900004F0020018B1D9208DF8000002E0D82003
:1046A0008DF800006A46012140F23D70FEF7DAFE07
:1046B00004F0040018B10120FFF7F2FE02E0002030
:1046C000FFF7EEFE04F0100018B10120FFF7B6FE70
:1046D00002E00020FFF7B2FE44F00800854948815F
:1046E000FDF7FCFA00208349887304F0400018B1FC
:1046F0000846807B801D887304F4C07020B17D481B
:10470000807B801D7B49887304F0140020B17948B8
:10471000807B10307749887304F0030020B175481E
:10472000807B001D7349887300203EBD014671489F
:1047300040890880002070472DE9F0410446E07868
:1047400000F0C006E07800F03F05607800F001005E
:1047500098B1EF102846E91705EB5171C910A5EB88
:10476000C101491C01F0FF086248006820B161489E
:10477000414602683846904700BF607800F0080064
:1047800030B15C48406818B1B0115A4A5168884746
:104790000020BDE8F08110B586B0044656A207CAD5
:1047A00003AB07C357A207CA8DE80700012C09D045
:1047B000022C0ED103AA0B2140F68220FEF752FEF6
:1047C00006B010BD6A460B2140F68220FEF74AFE75
:1047D000F6E74FF0FF30F3E72DE9F04F8DB00746D5
:1047E000884615469946DDE9166B00240020308086
:1047F0004049887B5A4605A9FEF77FF918B1601E2B
:104800000DB0BDE8F08F3B48807A00F0140000281E
:1048100061D09DF8140000069DF8151040EA014093
:104820009DF8161040EA01209DF8171008432860F3
:104830009DF8180000069DF8191040EA01409DF807
:104840001A1040EA01209DF81B10084368609DF88B
:104850001C0000069DF81D1040EA01409DF81E1046
:1048600040EA01209DF81F100843A8609DF8200031
:1048700000069DF8211040EA01409DF8221040EA10
:1048800001209DF823100843E86004F11000C4B231
:10489000286800140190686800140290A868001449
:1048A0000390E8680014049001984043029901FBCA
:1048B0000100039901FB0100049901FB010ABAF10F
:1048C000706F02DBBAF1885F22DDFDF707FA002086
:1048D0003080401E94E721E0B8AAB38DB4980D351E
:1048E0005D000000B8AAAAAAB088C3C5C70000002E
:1048F00009E3CA025C160020D8B1B9F38BA391B6C4
:1049000009B4D900DAB1B9F38BA391B6DAB4DA00FD
:10491000B6F9000040F48070308000BF3448807ADF
:1049200000F0400020B305A9601C085C095D40EA66
:10493000012000B2A8F8000005A9E01C095C05AA46
:10494000A01C105C41EA002000B2A8F8020005A9F2
:10495000601D095C201D105C41EA002000B2A8F82F
:104960000400A01DC4B2B6F9000040F00800308079
:104970001F48408900F4C07008B305A9601C085C9A
:10498000095D40EA012000B2388005A9E01C095CFD
:1049900005AAA01C105C41EA002000B2788005A99D
:1049A000601D095C201D105C41EA002000B2B88047
:1049B000A01DC4B2B6F9000040F0700030800C4871
:1049C000807A00F0030018B105A90819FFF7B4FEBA
:1049D0004846FDF7F0FC002012E70146044801605C
:1049E00000207047014602484160002070470000E7
:1049F0005C16002070B505460C4600F0F1F9D02099
:104A000000F09AFA00F02DFA18B100F00BFA01202C
:104A100070BD284600F090FA00F023FA204600F01E
:104A20008BFA00F01EFA18B100F0FCF90120EFE754
:104A300000F0F8F90020EBE770B504460025BC2C27
:104A400001DB012510E0622C01DB02250CE02A2CA1
:104A500001DB032508E0142C01DB042504E00A2C0B
:104A600001DB052500E0062529461A20FFF7C2FFD5
:104A700070BD70B50446B4F57A7F01DD4FF47A74E9
:104A8000042C00DA04244FF47A7090FBF4F0401EFA
:104A9000C5B229461920FFF7ADFF0546264604EBAF
:104AA000D671C1F34F00FFF7C7FF70BD70B5044664
:104AB00000F096F9D02000F03FFA00F0D2F920463D
:104AC00000F03AFA00F0CDF900F08AF9D12000F0B8
:104AD00033FA00F0C6F9002000F05BFA054600F05A
:104AE000A1F9284670BD10B50446E006010E1C2051
:104AF000FFF780FF10BD10B50446E006010E1B2035
:104B0000FFF778FF10BD10B500F04CF980216B2045
:104B1000FFF770FF642000F017FB00216B20FFF708
:104B200069FF0320FFF7E7FF0020FFF7DCFF3220DB
:104B3000FFF79FFF00213820FFF75CFF00216A206C
:104B4000FFF758FF00212320FFF754FF8021372073
:104B5000FFF750FF7520FFF7A9FF0446214687A005
:104B600014F0A0FA682C0BD101216B20FFF742FF53
:104B700000216C20FFF73EFF6420FFF77AFF09E079
:104B80008248007820B901208049087000F030FA8E
:104B9000012010BD0020FCE72DE9F04106460F463C
:104BA00014461D4600F01CF9002141EA4601C8B236
:104BB00000F0C2F900F055F920B100F033F90120FE
:104BC000BDE8F081384600F0B7F900F04AF900F08E
:104BD00007F9012101EB4601C8B200F0ADF900F080
:104BE00040F90DE0012C04D1002000F0D2F928702A
:104BF00003E0012000F0CDF92870601EC4B26D1CE6
:104C0000002CEFD100F00EF90020D9E710B52DED02
:104C1000088B82B001AB022241216820FFF7BCFF64
:104C20009DF805009DF8041040EA012004B22046DA
:104C300013F085FF41EC1B0B9FED550B53EC102B34
:104C400013F00EFF41EC1A0B9FED530B53EC102B9E
:104C500013F0EDFD41EC190B13F0D4FF08EE100A30
:104C60009FED4F0A28EE000ABDEEC00A10EE100AB2
:104C700000B202B0BDEC088B10BD2DE9FC4104462A
:104C80000D4616466B46062243216820FFF784FF37
:104C90000746BFB99DF801009DF8001040EA0120C9
:104CA00000B220809DF803009DF8021040EA012028
:104CB00000B228809DF805009DF8041040EA01200C
:104CC00000B230803846BDE8FC812DE9FC41044645
:104CD0000D4616466B4606223B216820FFF75CFF17
:104CE0000746BFB99DF801009DF8001040EA012079
:104CF00000B220809DF803009DF8021040EA0120D8
:104D000000B228809DF805009DF8041040EA0120BB
:104D100000B230803846BDE8FC812DE9F0410546FF
:104D20000E461746984600F05BF8002141EA45011F
:104D3000C8B200F001F900F094F820B100F072F868
:104D40000120BDE8F081304600F0F6F800F089F867
:104D500000240CE018F8040000F0EEF800F081F8F0
:104D600018B100F05FF80120EBE7601CC4B2BC4250
:104D7000F0DB00F057F80020E3E700004D5055202D
:104D80004944203D20307825580D0A00710000204C
:104D90000000000000407540A4703D0AD743424027
:104DA0000000C8421CB50121022000F03DFF032095
:104DB000009001208DF8040000208DF806000320EB
:104DC0008DF8050001208DF807006946994800F02C
:104DD0008DFC0120984908609849C1F884021CBDE7
:104DE00010B59448006820F00C009249086008460D
:104DF000006840F00400086001208F49091D086028
:104E00008E49C1F88002042000F056F900208A493A
:104E1000091D0860042000F04FF900208749C1F8FF
:104E2000800210BD10B58348006820F00C00814955
:104E300008600846006840F00400086000207E49D1
:104E400008607E49C1F88402042000F035F9012091
:104E5000794908607949C1F88402042000F02CF9EE
:104E600010BD10B500247348006820F00C00714993
:104E7000086008460068086001206F49091D086045
:104E800000F01AF901206D49C1F8800200F014F910
:104E900007E0601CC4B2FA2C03DDFFF7C3FF01205A
:104EA00010BD65487C3800680028F2D1624908606E
:104EB00000BFF5E710B500205F4908605D48006855
:104EC00020F00C005B4908600846006840F00400D0
:104ED000086000205949C1F88402022000F0ECF873
:104EE000012055490860022000F0E6F800205349EF
:104EF000C1F8800210BD10B500204F4908604D4830
:104F0000006820F00C004B4908600846006840F03B
:104F10000400086001204949C1F88402022000F021
:104F2000CBF8012044490860022000F0C5F80020B9
:104F30004249C1F8800210BD70B504463D48006882
:104F400020F00C003B4908600846006840F004006F
:104F50000860002038490860002517E0E00936495C
:104F6000091D08606006040E022000F0A5F801206B
:104F70003249C1F88002022000F09EF800202E493C
:104F80000860022000F098F8681CC5B2082DE5DB27
:104F900070BD70B5054600242648006820F00C005E
:104FA00024490860084600680860002616E00020D2
:104FB00021490860022000F07FF801201F49C1F854
:104FC00080026006040E1C487C38006808B1601C32
:104FD000C4B2012000F070F8701CC6B2082EE6DBE7
:104FE00015B9FFF788FF01E0FFF764FF204670BDA9
:104FF00010B5FFF7D7FE12A014F054F8012413E007
:10500000FFF7EEFE6106080EFFF796FFFFF729FF98
:1050100018B9214611A014F045F8FFF703FF02204C
:1050200000F092F8601CC4B27F2CE9DB0FA014F0F2
:1050300039F810BD000402408082404200804042A6
:105040002D2D2D20493243205363616E205374610E
:105050007274202D2D2D0D0A00000000466F756E14
:10506000643A203078253032580D0A002D2D2D203D
:10507000493243205363616E20456E64202D2D2DEF
:105080000D0A000010B504466FF0040000F08AFA23
:10509000E11704EB5171C1F3C701394A1170104691
:1050A000007800EB4001C1EBC0104FF6FF7101EA40
:1050B000C0003449088010BD0146314A12784A4385
:1050C0004FF0E0235A6100229A611A46126942F0B9
:1050D00001021A6100BF4FF0E022106900F00102E6
:1050E0001AB100F48032002AF5D04FF0E0221269A4
:1050F00022F001024FF0E0231A6100229A6170470A
:105100000146204A12884A434FF0E0235A610022A8
:105110009A611A46126942F001021A6100BF4FF00B
:10512000E022106900F001021AB100F48032002A76
:10513000F5D04FF0E022126922F001024FF0E02397
:105140001A6100229A61704770B504464FF40770E7
:1051500094FBF0F0C6B24FF4077094FBF0F100FB43
:10516000114085B205E04FF40770FFF7C9FF701ECC
:10517000C6B2002EF7D115B12846FFF7C1FF70BDAA
:10518000720000207400002000BF7047CA4A1278E5
:1051900012B1012A17D10AE000BFC84A128802F0F2
:1051A0004002002AF9D0C2B2C44B9A80704700BFB7
:1051B000C34A128802F04002002AF9D0C2B2C04BA2
:1051C0001B1D1A80F2E700BFBC4A128802F04002A1
:1051D000002AF9D0C2B2B94B9A8000BFE6E710B5F9
:1051E00088B004460121042000F01EFD012120208A
:1051F00000F074FD08220621B24800F002FB0822EC
:105200000721B04800F0FDFAC020069002208DF87A
:105210001C008DF81D0000208DF81E0001208DF867
:105220001F0006A9A74800F061FA20200690002080
:105230008DF81C0002208DF81D008DF81F0006A9B6
:10524000A04800F053FA02940020ADF80C00ADF82D
:105250000E00ADF81000ADF814000C20ADF81200EF
:1052600002A9974800F09BFE0121954800F01FFF1E
:10527000012240F22551924800F0CFFF47208DF8DF
:10528000040003208DF805008DF8060001208DF83C
:10529000070001A800F039F908B010BD10B540F2C0
:1052A0002551874800F0F4FF10B3854800F02EFF29
:1052B000C4B28548008800F40040C8B9824800881C
:1052C00000F4804060B10A2C03D000207E490880A1
:1052D00020E07D48008840F400407B49088019E0C8
:1052E0000D2C06D17848008840F48040764908802B
:1052F00010E075480088C0F30D0074490C547248E2
:105300000088401C7049088008460088C72801DDD5
:105310000020088010BD10B5044600BF80216848F9
:1053200000F0A0FF0028F9D02146654800F0EAFE11
:1053300010BD10B504460BE000BF8021604800F0AE
:1053400091FF0028F9D021785D4800F0DBFE641C55
:1053500020780028F0D110BD10B588B00446012196
:10536000084600F061FC0121102000F0B7FC072284
:105370000921574800F045FA07220A21544800F055
:1053800040FA4FF4C060069002208DF81C008DF8A2
:105390001D0000208DF81E0001208DF81F0006A9B9
:1053A0004B4800F0A3F902940020ADF80C00ADF8D2
:1053B0000E00ADF81000ADF814000C20ADF812008E
:1053C00002A93E4800F0EBFD01213C4800F06FFED1
:1053D000012240F22551394800F01FFF25208DF8A9
:1053E000040003208DF805008DF8060001208DF8DB
:1053F000070001A800F089F808B010BD10B50446F8
:1054000000BF80212D4800F02DFF0028F9D0214653
:105410002A4800F077FE10BD10B504460BE000BF2F
:105420008021264800F01EFF0028F9D0217823486B
:1054300000F068FE641C20780028F0D110BD10B583
:1054400040F225511D4800F023FF10B31B4800F027
:105450005DFEC4B21F48008800F40040C8B91D4872
:10546000008800F4804060B10A2C03D00020194964
:10547000088020E01748008840F400401549088063
:1054800019E00D2C06D11348008840F480401149E2
:10549000088010E00F480088C0F30D000E490C543E
:1054A0000C480088401C0B49088008460088C72823
:1054B00001DD0020088010BD7C00002000100140AC
:1054C00000140140000802407E0000206C160020FD
:1054D00000000240800000208C1600200648804713
:1054E00006480047FEE7FEE7FEE7FEE7FEE7FEE7C9
:1054F000FEE7FEE7FEE7FEE70D030008890100086E
:1055000032490143324A1160704770B500210023CF
:105510000F22C4781CB32E4C246804F4E064C4F554
:10552000E064C4F30721C1F10404E3B20A41447802
:105530009C40E1B28478144021430C07210E254C95
:1055400005786155047804F01F050124AC40057806
:105550006D11AD0005F1E025C5F8004109E00478C2
:1055600004F01F050124AC401B4D0678761145F868
:10557000264070BD194A0A400243154B1B1F1A6092
:10558000704739B1124A121D12680243104B1B1D9D
:105590001A6006E00E4A121D126882430C4B1B1D56
:1055A0001A607047042808D14FF0E021096941F0E2
:1055B00004014FF0E022116107E04FF0E02109699A
:1055C00021F004014FF0E022116170470000FA055C
:1055D0000CED00E000E400E080E100E080FFFF1F50
:1055E00010B504469848844208D10121084600F0CD
:1055F00086FB0021012000F082FB76E09348844284
:1056000008D10121022000F07AFB0021022000F0E5
:1056100076FB6AE08E48844208D10121042000F024
:105620006EFB0021042000F06AFB5EE089488442A2
:1056300008D10121082000F062FB0021082000F0C1
:105640005EFB52E08448844208D10121102000F022
:1056500056FB0021102000F052FB46E07F488442B8
:1056600008D10121202000F04AFB0021202000F079
:1056700046FB3AE07A48844208D10121402000F0FC
:105680003EFB0021402000F03AFB2EE075488442AA
:1056900008D10121802000F032FB0021802000F0A1
:1056A0002EFB22E07048844208D10121801500F0D1
:1056B00026FB0021A01500F022FB16E06B48844277
:1056C00008D10121401500F01AFB0021601500F0FF
:1056D00016FB0AE06648844207D10121001500F05C
:1056E0000EFB0021201500F00AFB10BDF0B50A46A4
:1056F00000210023002400BF3DE0012505FA01F34D
:10570000156805EA03049C4234D105684F0003265E
:10571000BE40B543056015794E00B5400668354377
:1057200005601579012D02D01579022D16D18568F5
:105730004F000326BE40B543856055794E00B54005
:10574000866835438560456801268E40B5434560CF
:10575000456896798E40B6B235434560C5684F00BE
:105760000326BE40B543C560D5794E00B540C66836
:105770003543C560491C1029BFD3F0BD4FF6FF71FA
:1057800001600021017141718171C171704708B5DB
:105790004FF480320092009A0A430092009AC2614C
:1057A000C161009AC261C2690092C269009208BDDB
:1057B0000246002013690B400BB1012000E00020DD
:1057C00070470146086980B270470246002053695D
:1057D0000B400BB1012000E00020704701464869F2
:1057E00080B2704701837047418370470AB10183DB
:1057F00000E0418370474161704742694A4042611D
:105800007047F0B5002300244D07ED0E02FA05F3B2
:10581000CE1000F1200555F826504E07F70E0F2642
:10582000BE40B543CF1000F1200646F82750CE10F9
:1058300000F1200555F8265045EA0304CE1000F18A
:10584000200545F82640F0BD00000240000402405B
:1058500000080240000C0240001002400014024008
:1058600000180240001C02400020024000240240B8
:1058700000280240F948006840F00100F74908603C
:105880000020F64908310860F4480068F4490840EF
:10589000F2490860F348091D0860F348EF49843174
:1058A0000860F0481038091D0860EC48006820F4D2
:1058B0008020EA4908600020E8490C310860E74987
:1058C0008C31086070470021E44A921C1170114627
:1058D0000870704710B501460022002300204A11CD
:1058E000012A02D1DD4C236808E0022A03D1DB4CF7
:1058F0007034236802E0D94C7434236801F01F022D
:10590000012494401C400CB1012000E0002010BD97
:1059100038B5002000900024002500BF3120FFF79B
:10592000D9FF05460098401C00900098B0F5A04FA4
:1059300001D0002DF2D03120FFF7CCFF08B10124B7
:1059400000E00024204638BD01460020C34A10680C
:1059500020F0F80040EAC10010607047C3490860B9
:1059600070470021BD4A703211701170012802D0B9
:1059700004280AD104E00121B84A7032117005E010
:105980000521B64A7032117000E000BF00BF7047B9
:10599000B7490860704770B5049C41EA821501263A
:1059A000C6EB530645EA0645054345EA0465AB4E9A
:1059B000361D356070BDAD4908667047820142EA08
:1059C0000172A64B84331A607047A84988667047F5
:1059D00010B5830143EA016343EA02739F4C8834A4
:1059E000236010BDA14908677047A049C86470478B
:1059F00002460020994B0833186820F0EC6042EA18
:105A000001031843954B0833186070470246002085
:105A1000924B0833186820F0784042EA010318439B
:105A20008E4B083318607047014600208B4A0832BD
:105A3000106820F003000843106070478748083062
:105A4000006800F00C00704701460020834A0832CD
:105A5000106820F0F00008431060704701460020F5
:105A60007E4A0832106820F4E05008431060704706
:105A700001460020794A0832106820F4604040EA6C
:105A8000C10010607047F0B50021002200240225FB
:105A900000260223714F08373F6807F00C0121B13F
:105AA000042905D0082937D105E0724F076036E098
:105AB000714F076033E0694F3F1D3F68C7F3805661
:105AC000664F3F1D3F6807F03F036EB16A4FB7FB5B
:105AD000F3F7DFF888C10CF1040CDCF800C0CCF35C
